{"abi":[{"type":"constructor","inputs":[{"name":"_owner","type":"address","internalType":"address"}],"stateMutability":"nonpayable"},{"type":"function","name":"batchSetLines","inputs":[{"name":"ups","type":"tuple[]","internalType":"struct ICreditLimitManager.LineUpdate[]","components":[{"name":"account","type":"address","internalType":"address"},{"name":"score","type":"uint8","internalType":"uint8"},{"name":"limit","type":"uint256","internalType":"uint256"}]}],"outputs":[],"stateMutability":"nonpayable"},{"type":"function","name":"clearLine","inputs":[{"name":"account","type":"address","internalType":"address"}],"outputs":[],"stateMutability":"nonpayable"},{"type":"function","name":"creditLimit","inputs":[{"name":"account","type":"address","internalType":"address"}],"outputs":[{"name":"","type":"uint256","internalType":"uint256"}],"stateMutability":"view"},{"type":"function","name":"lines","inputs":[{"name":"","type":"address","internalType":"address"}],"outputs":[{"name":"score","type":"uint8","internalType":"uint8"},{"name":"limit","type":"uint248","internalType":"uint248"}],"stateMutability":"view"},{"type":"function","name":"owner","inputs":[],"outputs":[{"name":"","type":"address","internalType":"address"}],"stateMutability":"view"},{"type":"function","name":"scoreOf","inputs":[{"name":"account","type":"address","internalType":"address"}],"outputs":[{"name":"","type":"uint8","internalType":"uint8"}],"stateMutability":"view"},{"type":"function","name":"setLine","inputs":[{"name":"account","type":"address","internalType":"address"},{"name":"score","type":"uint8","internalType":"uint8"},{"name":"limit","type":"uint256","internalType":"uint256"}],"outputs":[],"stateMutability":"nonpayable"},{"type":"function","name":"setOwner","inputs":[{"name":"n","type":"address","internalType":"address"}],"outputs":[],"stateMutability":"nonpayable"},{"type":"event","name":"LineCleared","inputs":[{"name":"account","type":"address","indexed":true,"internalType":"address"}],"anonymous":false},{"type":"event","name":"LineSet","inputs":[{"name":"account","type":"address","indexed":true,"internalType":"address"},{"name":"score","type":"uint8","indexed":false,"internalType":"uint8"},{"name":"limit","type":"uint256","indexed":false,"internalType":"uint256"}],"anonymous":false},{"type":"event","name":"OwnerChanged","inputs":[{"name":"oldOwner","type":"address","indexed":true,"internalType":"address"},{"name":"newOwner","type":"address","indexed":true,"internalType":"address"}],"anonymous":false}],"bytecode":{"object":"0x608060405234801561000f575f5ffd5b50604051610f90380380610f908339818101604052810190610031919061010e565b5f73ffffffffffffffffffffffffffffffffffffffff168173ffffffffffffffffffffffffffffffffffffffff161461006a578061006c565b335b5f5f6101000a81548173ffffffffffffffffffffffffffffffffffffffff021916908373ffffffffffffffffffffffffffffffffffffffff16021790555050610139565b5f5ffd5b5f73ffffffffffffffffffffffffffffffffffffffff82169050919050565b5f6100dd826100b4565b9050919050565b6100ed816100d3565b81146100f7575f5ffd5b50565b5f81519050610108816100e4565b92915050565b5f60208284031215610123576101226100b0565b5b5f610130848285016100fa565b91505092915050565b610e4a806101465f395ff3fe608060405234801561000f575f5ffd5b5060043610610086575f3560e01c806393a2ab181161005957806393a2ab1814610124578063960c3a6014610140578063b5b98ce914610171578063ebfedd311461018d57610086565b8063133af4561461008a57806313af4035146100ba5780631f429f50146100d65780638da5cb5b14610106575b5f5ffd5b6100a4600480360381019061009f91906109e5565b6101a9565b6040516100b19190610a2b565b60405180910390f35b6100d460048036038101906100cf91906109e5565b6101fd565b005b6100f060048036038101906100eb91906109e5565b6103b5565b6040516100fd9190610a5c565b60405180910390f35b61010e610449565b60405161011b9190610a84565b60405180910390f35b61013e600480360381019061013991906109e5565b61046d565b005b61015a600480360381019061015591906109e5565b6105c4565b604051610168929190610ad6565b60405180910390f35b61018b60048036038101906101869190610b5e565b61061a565b005b6101a760048036038101906101a29190610bfd565b61073f565b005b5f60015f8373ffffffffffffffffffffffffffffffffffffffff1673ffffffffffffffffffffffffffffffffffffffff1681526020019081526020015f205f015f9054906101000a900460ff169050919050565b5f5f9054906101000a900473ffffffffffffffffffffffffffffffffffffffff1673ffffffffffffffffffffffffffffffffffffffff163373ffffffffffffffffffffffffffffffffffffffff161461028b576040517f08c379a000000000000000000000000000000000000000000000000000000000815260040161028290610ca7565b60405180910390fd5b5f73ffffffffffffffffffffffffffffffffffffffff168173ffffffffffffffffffffffffffffffffffffffff16036102f9576040517f08c379a00000000000000000000000000000000000000000000000000000000081526004016102f090610d0f565b60405180910390fd5b8073ffffffffffffffffffffffffffffffffffffffff165f5f9054906101000a900473ffffffffffffffffffffffffffffffffffffffff1673ffffffffffffffffffffffffffffffffffffffff167fb532073b38c83145e3e5135377a08bf9aab55bc0fd7c1179cd4fb995d2a5159c60405160405180910390a3805f5f6101000a81548173ffffffffffffffffffffffffffffffffffffffff021916908373ffffffffffffffffffffffffffffffffffffffff16021790555050565b5f60015f8373ffffffffffffffffffffffffffffffffffffffff1673ffffffffffffffffffffffffffffffffffffffff1681526020019081526020015f205f0160019054906101000a90047effffffffffffffffffffffffffffffffffffffffffffffffffffffffffffff167effffffffffffffffffffffffffffffffffffffffffffffffffffffffffffff169050919050565b5f5f9054906101000a900473ffffffffffffffffffffffffffffffffffffffff1681565b5f5f9054906101000a900473ffffffffffffffffffffffffffffffffffffffff1673ffffffffffffffffffffffffffffffffffffffff163373ffffffffffffffffffffffffffffffffffffffff16146104fb576040517f08c379a00000000000000000000000000000000000000000000000000000000081526004016104f290610ca7565b60405180910390fd5b60015f8273ffffffffffffffffffffffffffffffffffffffff1673ffffffffffffffffffffffffffffffffffffffff1681526020019081526020015f205f5f82015f6101000a81549060ff02191690555f820160016101000a8154907effffffffffffffffffffffffffffffffffffffffffffffffffffffffffffff021916905550508073ffffffffffffffffffffffffffffffffffffffff167f168ef39dff4c656ad71e0a283758feed9190b79916ca2936f34ac33d22dccbfc60405160405180910390a250565b6001602052805f5260405f205f91509050805f015f9054906101000a900460ff1690805f0160019054906101000a90047effffffffffffffffffffffffffffffffffffffffffffffffffffffffffffff16905082565b5f5f9054906101000a900473ffffffffffffffffffffffffffffffffffffffff1673ffffffffffffffffffffffffffffffffffffffff163373ffffffffffffffffffffffffffffffffffffffff16146106a8576040517f08c379a000000000000000000000000000000000000000000000000000000000815260040161069f90610ca7565b60405180910390fd5b5f5b8282905081101561073a5761072f8383838181106106cb576106ca610d2d565b5b9050606002015f0160208101906106e291906109e5565b8484848181106106f5576106f4610d2d565b5b905060600201602001602081019061070d9190610d5a565b8585858181106107205761071f610d2d565b5b9050606002016040013561073f565b8060010190506106aa565b505050565b5f5f9054906101000a900473ffffffffffffffffffffffffffffffffffffffff1673ffffffffffffffffffffffffffffffffffffffff163373ffffffffffffffffffffffffffffffffffffffff16146107cd576040517f08c379a00000000000000000000000000000000000000000000000000000000081526004016107c490610ca7565b60405180910390fd5b5f73ffffffffffffffffffffffffffffffffffffffff168373ffffffffffffffffffffffffffffffffffffffff160361083b576040517f08c379a000000000000000000000000000000000000000000000000000000000815260040161083290610dcf565b60405180910390fd5b60405180604001604052808360ff168152602001827effffffffffffffffffffffffffffffffffffffffffffffffffffffffffffff1681525060015f8573ffffffffffffffffffffffffffffffffffffffff1673ffffffffffffffffffffffffffffffffffffffff1681526020019081526020015f205f820151815f015f6101000a81548160ff021916908360ff1602179055506020820151815f0160016101000a8154817effffffffffffffffffffffffffffffffffffffffffffffffffffffffffffff02191690837effffffffffffffffffffffffffffffffffffffffffffffffffffffffffffff1602179055509050508273ffffffffffffffffffffffffffffffffffffffff167f6a9730eda0cebbb436d11754e768a91191e887ffc9d84ab8770e77355a41f0c58383604051610976929190610ded565b60405180910390a2505050565b5f5ffd5b5f5ffd5b5f73ffffffffffffffffffffffffffffffffffffffff82169050919050565b5f6109b48261098b565b9050919050565b6109c4816109aa565b81146109ce575f5ffd5b50565b5f813590506109df816109bb565b92915050565b5f602082840312156109fa576109f9610983565b5b5f610a07848285016109d1565b91505092915050565b5f60ff82169050919050565b610a2581610a10565b82525050565b5f602082019050610a3e5f830184610a1c565b92915050565b5f819050919050565b610a5681610a44565b82525050565b5f602082019050610a6f5f830184610a4d565b92915050565b610a7e816109aa565b82525050565b5f602082019050610a975f830184610a75565b92915050565b5f7effffffffffffffffffffffffffffffffffffffffffffffffffffffffffffff82169050919050565b610ad081610a9d565b82525050565b5f604082019050610ae95f830185610a1c565b610af66020830184610ac7565b9392505050565b5f5ffd5b5f5ffd5b5f5ffd5b5f5f83601f840112610b1e57610b1d610afd565b5b8235905067ffffffffffffffff811115610b3b57610b3a610b01565b5b602083019150836060820283011115610b5757610b56610b05565b5b9250929050565b5f5f60208385031215610b7457610b73610983565b5b5f83013567ffffffffffffffff811115610b9157610b90610987565b5b610b9d85828601610b09565b92509250509250929050565b610bb281610a10565b8114610bbc575f5ffd5b50565b5f81359050610bcd81610ba9565b92915050565b610bdc81610a44565b8114610be6575f5ffd5b50565b5f81359050610bf781610bd3565b92915050565b5f5f5f60608486031215610c1457610c13610983565b5b5f610c21868287016109d1565b9350506020610c3286828701610bbf565b9250506040610c4386828701610be9565b9150509250925092565b5f82825260208201905092915050565b7f6e6f74206f776e657200000000000000000000000000000000000000000000005f82015250565b5f610c91600983610c4d565b9150610c9c82610c5d565b602082019050919050565b5f6020820190508181035f830152610cbe81610c85565b9050919050565b7f6f776e65723d30000000000000000000000000000000000000000000000000005f82015250565b5f610cf9600783610c4d565b9150610d0482610cc5565b602082019050919050565b5f6020820190508181035f830152610d2681610ced565b9050919050565b7f4e487b71000000000000000000000000000000000000000000000000000000005f52603260045260245ffd5b5f60208284031215610d6f57610d6e610983565b5b5f610d7c84828501610bbf565b91505092915050565b7f616363743d3000000000000000000000000000000000000000000000000000005f82015250565b5f610db9600683610c4d565b9150610dc482610d85565b602082019050919050565b5f6020820190508181035f830152610de681610dad565b9050919050565b5f604082019050610e005f830185610a1c565b610e0d6020830184610a4d565b939250505056fea2646970667358221220c7bde3ff2041921a0d42a37f79d9dbeb624f0fe9e6c72257b49ed97c862ac5aa64736f6c634300081e0033","linkReferences":{}},"methodIdentifiers":{"batchSetLines((address,uint8,uint256)[])":"b5b98ce9","clearLine(address)":"93a2ab18","creditLimit(address)":"1f429f50","lines(address)":"960c3a60","owner()":"8da5cb5b","scoreOf(address)":"133af456","setLine(address,uint8,uint256)":"ebfedd31","setOwner(address)":"13af4035"},"id":36}