{"abi":[{"type":"constructor","inputs":[{"name":"_s","type":"address","internalType":"address"},{"name":"_j","type":"address","internalType":"address"},{"name":"_mkt","type":"address","internalType":"address"},{"name":"_usdc","type":"address","internalType":"address"},{"name":"_irm","type":"address","internalType":"address"},{"name":"_riskManagerShim","type":"address","internalType":"address"}],"stateMutability":"nonpayable"},{"type":"function","name":"MODULE_RISKMANAGER","inputs":[],"outputs":[{"name":"","type":"address","internalType":"address"}],"stateMutability":"view"},{"type":"function","name":"allowance","inputs":[{"name":"owner","type":"address","internalType":"address"},{"name":"spender","type":"address","internalType":"address"}],"outputs":[{"name":"","type":"uint256","internalType":"uint256"}],"stateMutability":"view"},{"type":"function","name":"asset","inputs":[],"outputs":[{"name":"","type":"address","internalType":"address"}],"stateMutability":"view"},{"type":"function","name":"availableCashAssets","inputs":[],"outputs":[{"name":"","type":"uint256","internalType":"uint256"}],"stateMutability":"view"},{"type":"function","name":"balanceOf","inputs":[{"name":"account","type":"address","internalType":"address"}],"outputs":[{"name":"","type":"uint256","internalType":"uint256"}],"stateMutability":"view"},{"type":"function","name":"borrow","inputs":[{"name":"assets","type":"uint256","internalType":"uint256"},{"name":"receiver","type":"address","internalType":"address"}],"outputs":[{"name":"","type":"uint256","internalType":"uint256"}],"stateMutability":"nonpayable"},{"type":"function","name":"convertToAssets","inputs":[{"name":"shares","type":"uint256","internalType":"uint256"}],"outputs":[{"name":"","type":"uint256","internalType":"uint256"}],"stateMutability":"view"},{"type":"function","name":"convertToJuniorAssets","inputs":[{"name":"jShares","type":"uint256","internalType":"uint256"}],"outputs":[{"name":"","type":"uint256","internalType":"uint256"}],"stateMutability":"view"},{"type":"function","name":"debtOf","inputs":[{"name":"account","type":"address","internalType":"address"}],"outputs":[{"name":"","type":"uint256","internalType":"uint256"}],"stateMutability":"view"},{"type":"function","name":"decimals","inputs":[],"outputs":[{"name":"","type":"uint8","internalType":"uint8"}],"stateMutability":"view"},{"type":"function","name":"demoteToSenior","inputs":[{"name":"jShares","type":"uint256","internalType":"uint256"},{"name":"to","type":"address","internalType":"address"}],"outputs":[{"name":"sUsdcOut","type":"uint256","internalType":"uint256"}],"stateMutability":"nonpayable"},{"type":"function","name":"deposit","inputs":[{"name":"assets","type":"uint256","internalType":"uint256"},{"name":"receiver","type":"address","internalType":"address"}],"outputs":[{"name":"","type":"uint256","internalType":"uint256"}],"stateMutability":"nonpayable"},{"type":"function","name":"interestRateModel","inputs":[],"outputs":[{"name":"","type":"address","internalType":"address"}],"stateMutability":"view"},{"type":"function","name":"irm","inputs":[],"outputs":[{"name":"","type":"address","internalType":"address"}],"stateMutability":"view"},{"type":"function","name":"j","inputs":[],"outputs":[{"name":"","type":"address","internalType":"contract IERC4626"}],"stateMutability":"view"},{"type":"function","name":"maxWithdraw","inputs":[{"name":"owner_","type":"address","internalType":"address"}],"outputs":[{"name":"","type":"uint256","internalType":"uint256"}],"stateMutability":"view"},{"type":"function","name":"mkt","inputs":[],"outputs":[{"name":"","type":"address","internalType":"contract ILendMarket"}],"stateMutability":"view"},{"type":"function","name":"previewWithdrawJunior","inputs":[{"name":"jShares","type":"uint256","internalType":"uint256"}],"outputs":[{"name":"","type":"uint256","internalType":"uint256"}],"stateMutability":"view"},{"type":"function","name":"psJuniorRay","inputs":[],"outputs":[{"name":"","type":"uint256","internalType":"uint256"}],"stateMutability":"view"},{"type":"function","name":"psSeniorRay","inputs":[],"outputs":[{"name":"","type":"uint256","internalType":"uint256"}],"stateMutability":"view"},{"type":"function","name":"repay","inputs":[{"name":"assets","type":"uint256","internalType":"uint256"},{"name":"onBehalfOf","type":"address","internalType":"address"}],"outputs":[{"name":"","type":"uint256","internalType":"uint256"}],"stateMutability":"nonpayable"},{"type":"function","name":"riskManagerShim","inputs":[],"outputs":[{"name":"","type":"address","internalType":"address"}],"stateMutability":"view"},{"type":"function","name":"s","inputs":[],"outputs":[{"name":"","type":"address","internalType":"contract IERC4626"}],"stateMutability":"view"},{"type":"function","name":"usdc","inputs":[],"outputs":[{"name":"","type":"address","internalType":"contract IERC20"}],"stateMutability":"view"},{"type":"function","name":"withdraw","inputs":[{"name":"assets","type":"uint256","internalType":"uint256"},{"name":"receiver","type":"address","internalType":"address"},{"name":"owner_","type":"address","internalType":"address"}],"outputs":[{"name":"","type":"uint256","internalType":"uint256"}],"stateMutability":"nonpayable"}],"bytecode":{"object":"0x610140604052348015610010575f5ffd5b50604051611d5e380380611d5e833981810160405281019061003291906101d5565b8573ffffffffffffffffffffffffffffffffffffffff1660808173ffffffffffffffffffffffffffffffffffffffff16815250508473ffffffffffffffffffffffffffffffffffffffff1660a08173ffffffffffffffffffffffffffffffffffffffff16815250508373ffffffffffffffffffffffffffffffffffffffff1660c08173ffffffffffffffffffffffffffffffffffffffff16815250508273ffffffffffffffffffffffffffffffffffffffff1660e08173ffffffffffffffffffffffffffffffffffffffff16815250508173ffffffffffffffffffffffffffffffffffffffff166101008173ffffffffffffffffffffffffffffffffffffffff16815250508073ffffffffffffffffffffffffffffffffffffffff166101208173ffffffffffffffffffffffffffffffffffffffff168152505050505050505061025e565b5f5ffd5b5f73ffffffffffffffffffffffffffffffffffffffff82169050919050565b5f6101a48261017b565b9050919050565b6101b48161019a565b81146101be575f5ffd5b50565b5f815190506101cf816101ab565b92915050565b5f5f5f5f5f5f60c087890312156101ef576101ee610177565b5b5f6101fc89828a016101c1565b965050602061020d89828a016101c1565b955050604061021e89828a016101c1565b945050606061022f89828a016101c1565b935050608061024089828a016101c1565b92505060a061025189828a016101c1565b9150509295509295509295565b60805160a05160c05160e0516101005161012051611a1f61033f5f395f81816106830152610bfc01525f81816106a7015261115701525f818161089101526110b401525f81816108b70152818161095001528181610bd701528181610dae0152610fbd01525f81816105de015281816107f2015281816109f401528181610ef80152818161117f015261121f01525f818161053e015281816106cc0152818161075f01528181610a9401528181610b3801528181610c2201528181610c4801528181610ce801528181610e5201528181610f1d01526110900152611a1f5ff3fe608060405234801561000f575f5ffd5b5060043610610171575f3560e01c806370a08231116100dc578063b460af9411610095578063d283e75f1161006f578063d283e75f1461049f578063dd62ed3e146104cf578063f3fdb15a146104ff578063feee9c9a1461051d57610171565b8063b460af9414610421578063b582ec5f14610451578063ce96cb771461046f57610171565b806370a08231146103495780637cc5b1e6146103795780637d5f2e4e1461039757806386b714e2146103b55780639eb0937d146103d3578063acb70815146103f157610171565b80633bfec6a71161012e5780633bfec6a71461024d5780633e413bee1461027d578063483d06f31461029b5780634b3fd148146102b95780636b6c0f1c146102e95780636e553f651461031957610171565b806307a2d13a146101755780630a109395146101a55780631b800634146101d557806328e8fe7d146101f3578063313ce5671461021157806338d52e0f1461022f575b5f5ffd5b61018f600480360381019061018a9190611319565b61053b565b60405161019c9190611353565b60405180910390f35b6101bf60048036038101906101ba91906113c6565b6105db565b6040516101cc9190611353565b60405180910390f35b6101dd610681565b6040516101ea9190611413565b60405180910390f35b6101fb6106a5565b6040516102089190611413565b60405180910390f35b6102196106c9565b6040516102269190611447565b60405180910390f35b61023761075c565b6040516102449190611413565b60405180910390f35b61026760048036038101906102629190611319565b6107ef565b6040516102749190611353565b60405180910390f35b61028561088f565b60405161029291906114bb565b60405180910390f35b6102a36108b3565b6040516102b09190611353565b60405180910390f35b6102d360048036038101906102ce91906113c6565b61094d565b6040516102e09190611353565b60405180910390f35b61030360048036038101906102fe9190611319565b6109f1565b6040516103109190611353565b60405180910390f35b610333600480360381019061032e91906113c6565b610a91565b6040516103409190611353565b60405180910390f35b610363600480360381019061035e91906114d4565b610b35565b6040516103709190611353565b60405180910390f35b610381610bd5565b60405161038e919061151f565b60405180910390f35b61039f610bf9565b6040516103ac9190611413565b60405180910390f35b6103bd610c20565b6040516103ca9190611558565b60405180910390f35b6103db610c44565b6040516103e89190611353565b60405180910390f35b61040b600480360381019061040691906113c6565b610dab565b6040516104189190611353565b60405180910390f35b61043b60048036038101906104369190611571565b610e4f565b6040516104489190611353565b60405180910390f35b610459610ef6565b6040516104669190611558565b60405180910390f35b610489600480360381019061048491906114d4565b610f1a565b6040516104969190611353565b60405180910390f35b6104b960048036038101906104b491906114d4565b610fba565b6040516104c69190611353565b60405180910390f35b6104e960048036038101906104e491906115c1565b61105a565b6040516104f69190611353565b60405180910390f35b610507611154565b6040516105149190611413565b60405180910390f35b61052561117b565b6040516105329190611353565b60405180910390f35b5f7f000000000000000000000000000000000000000000000000000000000000000073ffffffffffffffffffffffffffffffffffffffff166307a2d13a836040518263ffffffff1660e01b81526004016105959190611353565b602060405180830381865afa1580156105b0573d5f5f3e3d5ffd5b505050506040513d601f19601f820116820180604052508101906105d49190611613565b9050919050565b5f7f000000000000000000000000000000000000000000000000000000000000000073ffffffffffffffffffffffffffffffffffffffff1663ba0876528484336040518463ffffffff1660e01b81526004016106399392919061163e565b6020604051808303815f875af1158015610655573d5f5f3e3d5ffd5b505050506040513d601f19601f820116820180604052508101906106799190611613565b905092915050565b7f000000000000000000000000000000000000000000000000000000000000000081565b7f000000000000000000000000000000000000000000000000000000000000000081565b5f7f000000000000000000000000000000000000000000000000000000000000000073ffffffffffffffffffffffffffffffffffffffff1663313ce5676040518163ffffffff1660e01b8152600401602060405180830381865afa158015610733573d5f5f3e3d5ffd5b505050506040513d601f19601f82011682018060405250810190610757919061169d565b905090565b5f7f000000000000000000000000000000000000000000000000000000000000000073ffffffffffffffffffffffffffffffffffffffff166338d52e0f6040518163ffffffff1660e01b8152600401602060405180830381865afa1580156107c6573d5f5f3e3d5ffd5b505050506040513d601f19601f820116820180604052508101906107ea91906116dc565b905090565b5f7f000000000000000000000000000000000000000000000000000000000000000073ffffffffffffffffffffffffffffffffffffffff166307a2d13a836040518263ffffffff1660e01b81526004016108499190611353565b602060405180830381865afa158015610864573d5f5f3e3d5ffd5b505050506040513d601f19601f820116820180604052508101906108889190611613565b9050919050565b7f000000000000000000000000000000000000000000000000000000000000000081565b5f5f7f000000000000000000000000000000000000000000000000000000000000000073ffffffffffffffffffffffffffffffffffffffff166389103cde6040518163ffffffff1660e01b8152600401606060405180830381865afa15801561091e573d5f5f3e3d5ffd5b505050506040513d601f19601f820116820180604052508101906109429190611707565b925050508091505090565b5f7f000000000000000000000000000000000000000000000000000000000000000073ffffffffffffffffffffffffffffffffffffffff16634b3fd14884846040518363ffffffff1660e01b81526004016109a9929190611757565b6020604051808303815f875af11580156109c5573d5f5f3e3d5ffd5b505050506040513d601f19601f820116820180604052508101906109e99190611613565b905092915050565b5f7f000000000000000000000000000000000000000000000000000000000000000073ffffffffffffffffffffffffffffffffffffffff166307a2d13a836040518263ffffffff1660e01b8152600401610a4b9190611353565b602060405180830381865afa158015610a66573d5f5f3e3d5ffd5b505050506040513d601f19601f82011682018060405250810190610a8a9190611613565b9050919050565b5f7f000000000000000000000000000000000000000000000000000000000000000073ffffffffffffffffffffffffffffffffffffffff16636e553f6584846040518363ffffffff1660e01b8152600401610aed929190611757565b6020604051808303815f875af1158015610b09573d5f5f3e3d5ffd5b505050506040513d601f19601f82011682018060405250810190610b2d9190611613565b905092915050565b5f7f000000000000000000000000000000000000000000000000000000000000000073ffffffffffffffffffffffffffffffffffffffff166370a08231836040518263ffffffff1660e01b8152600401610b8f9190611413565b602060405180830381865afa158015610baa573d5f5f3e3d5ffd5b505050506040513d601f19601f82011682018060405250810190610bce9190611613565b9050919050565b7f000000000000000000000000000000000000000000000000000000000000000081565b5f7f0000000000000000000000000000000000000000000000000000000000000000905090565b7f000000000000000000000000000000000000000000000000000000000000000081565b5f5f7f000000000000000000000000000000000000000000000000000000000000000073ffffffffffffffffffffffffffffffffffffffff1663313ce5676040518163ffffffff1660e01b8152600401602060405180830381865afa158015610caf573d5f5f3e3d5ffd5b505050506040513d601f19601f82011682018060405250810190610cd3919061169d565b90505f81600a610ce391906118da565b90505f7f000000000000000000000000000000000000000000000000000000000000000073ffffffffffffffffffffffffffffffffffffffff166307a2d13a836040518263ffffffff1660e01b8152600401610d3f9190611353565b602060405180830381865afa158015610d5a573d5f5f3e3d5ffd5b505050506040513d601f19601f82011682018060405250810190610d7e9190611613565b9050816b033b2e3c9fd0803ce800000082610d999190611924565b610da39190611992565b935050505090565b5f7f000000000000000000000000000000000000000000000000000000000000000073ffffffffffffffffffffffffffffffffffffffff1663acb7081584846040518363ffffffff1660e01b8152600401610e07929190611757565b6020604051808303815f875af1158015610e23573d5f5f3e3d5ffd5b505050506040513d601f19601f82011682018060405250810190610e479190611613565b905092915050565b5f7f000000000000000000000000000000000000000000000000000000000000000073ffffffffffffffffffffffffffffffffffffffff1663b460af948585856040518463ffffffff1660e01b8152600401610ead9392919061163e565b6020604051808303815f875af1158015610ec9573d5f5f3e3d5ffd5b505050506040513d601f19601f82011682018060405250810190610eed9190611613565b90509392505050565b7f000000000000000000000000000000000000000000000000000000000000000081565b5f7f000000000000000000000000000000000000000000000000000000000000000073ffffffffffffffffffffffffffffffffffffffff1663ce96cb77836040518263ffffffff1660e01b8152600401610f749190611413565b602060405180830381865afa158015610f8f573d5f5f3e3d5ffd5b505050506040513d601f19601f82011682018060405250810190610fb39190611613565b9050919050565b5f7f000000000000000000000000000000000000000000000000000000000000000073ffffffffffffffffffffffffffffffffffffffff1663fd2d39c5836040518263ffffffff1660e01b81526004016110149190611413565b602060405180830381865afa15801561102f573d5f5f3e3d5ffd5b505050506040513d601f19601f820116820180604052508101906110539190611613565b9050919050565b5f3073ffffffffffffffffffffffffffffffffffffffff168273ffffffffffffffffffffffffffffffffffffffff16036110b2577f000000000000000000000000000000000000000000000000000000000000000091505b7f000000000000000000000000000000000000000000000000000000000000000073ffffffffffffffffffffffffffffffffffffffff1663dd62ed3e84846040518363ffffffff1660e01b815260040161110d9291906119c2565b602060405180830381865afa158015611128573d5f5f3e3d5ffd5b505050506040513d601f19601f8201168201806040525081019061114c9190611613565b905092915050565b5f7f0000000000000000000000000000000000000000000000000000000000000000905090565b5f5f7f000000000000000000000000000000000000000000000000000000000000000073ffffffffffffffffffffffffffffffffffffffff1663313ce5676040518163ffffffff1660e01b8152600401602060405180830381865afa1580156111e6573d5f5f3e3d5ffd5b505050506040513d601f19601f8201168201806040525081019061120a919061169d565b90505f81600a61121a91906118da565b90505f7f000000000000000000000000000000000000000000000000000000000000000073ffffffffffffffffffffffffffffffffffffffff166307a2d13a836040518263ffffffff1660e01b81526004016112769190611353565b602060405180830381865afa158015611291573d5f5f3e3d5ffd5b505050506040513d601f19601f820116820180604052508101906112b59190611613565b9050816b033b2e3c9fd0803ce8000000826112d09190611924565b6112da9190611992565b935050505090565b5f5ffd5b5f819050919050565b6112f8816112e6565b8114611302575f5ffd5b50565b5f81359050611313816112ef565b92915050565b5f6020828403121561132e5761132d6112e2565b5b5f61133b84828501611305565b91505092915050565b61134d816112e6565b82525050565b5f6020820190506113665f830184611344565b92915050565b5f73ffffffffffffffffffffffffffffffffffffffff82169050919050565b5f6113958261136c565b9050919050565b6113a58161138b565b81146113af575f5ffd5b50565b5f813590506113c08161139c565b92915050565b5f5f604083850312156113dc576113db6112e2565b5b5f6113e985828601611305565b92505060206113fa858286016113b2565b9150509250929050565b61140d8161138b565b82525050565b5f6020820190506114265f830184611404565b92915050565b5f60ff82169050919050565b6114418161142c565b82525050565b5f60208201905061145a5f830184611438565b92915050565b5f819050919050565b5f61148361147e6114798461136c565b611460565b61136c565b9050919050565b5f61149482611469565b9050919050565b5f6114a58261148a565b9050919050565b6114b58161149b565b82525050565b5f6020820190506114ce5f8301846114ac565b92915050565b5f602082840312156114e9576114e86112e2565b5b5f6114f6848285016113b2565b91505092915050565b5f6115098261148a565b9050919050565b611519816114ff565b82525050565b5f6020820190506115325f830184611510565b92915050565b5f6115428261148a565b9050919050565b61155281611538565b82525050565b5f60208201905061156b5f830184611549565b92915050565b5f5f5f60608486031215611588576115876112e2565b5b5f61159586828701611305565b93505060206115a6868287016113b2565b92505060406115b7868287016113b2565b9150509250925092565b5f5f604083850312156115d7576115d66112e2565b5b5f6115e4858286016113b2565b92505060206115f5858286016113b2565b9150509250929050565b5f8151905061160d816112ef565b92915050565b5f60208284031215611628576116276112e2565b5b5f611635848285016115ff565b91505092915050565b5f6060820190506116515f830186611344565b61165e6020830185611404565b61166b6040830184611404565b949350505050565b61167c8161142c565b8114611686575f5ffd5b50565b5f8151905061169781611673565b92915050565b5f602082840312156116b2576116b16112e2565b5b5f6116bf84828501611689565b91505092915050565b5f815190506116d68161139c565b92915050565b5f602082840312156116f1576116f06112e2565b5b5f6116fe848285016116c8565b91505092915050565b5f5f5f6060848603121561171e5761171d6112e2565b5b5f61172b868287016115ff565b935050602061173c868287016115ff565b925050604061174d868287016115ff565b9150509250925092565b5f60408201905061176a5f830185611344565b6117776020830184611404565b9392505050565b7f4e487b71000000000000000000000000000000000000000000000000000000005f52601160045260245ffd5b5f8160011c9050919050565b5f5f8291508390505b6001851115611800578086048111156117dc576117db61177e565b5b60018516156117eb5780820291505b80810290506117f9856117ab565b94506117c0565b94509492505050565b5f8261181857600190506118d3565b81611825575f90506118d3565b816001811461183b576002811461184557611874565b60019150506118d3565b60ff8411156118575761185661177e565b5b8360020a91508482111561186e5761186d61177e565b5b506118d3565b5060208310610133831016604e8410600b84101617156118a95782820a9050838111156118a4576118a361177e565b5b6118d3565b6118b684848460016117b7565b925090508184048111156118cd576118cc61177e565b5b81810290505b9392505050565b5f6118e4826112e6565b91506118ef8361142c565b925061191c7fffffffffffffffffffffffffffffffffffffffffffffffffffffffffffffffff8484611809565b905092915050565b5f61192e826112e6565b9150611939836112e6565b9250828202611947816112e6565b9150828204841483151761195e5761195d61177e565b5b5092915050565b7f4e487b71000000000000000000000000000000000000000000000000000000005f52601260045260245ffd5b5f61199c826112e6565b91506119a7836112e6565b9250826119b7576119b6611965565b5b828204905092915050565b5f6040820190506119d55f830185611404565b6119e26020830184611404565b939250505056fea26469706673582212203ac2eb5d0a2476a6c72a05e2244274dffd52810cd0b6258af174e4eca2cf4e9f64736f6c634300081e0033","linkReferences":{}},"methodIdentifiers":{"MODULE_RISKMANAGER()":"7d5f2e4e","allowance(address,address)":"dd62ed3e","asset()":"38d52e0f","availableCashAssets()":"483d06f3","balanceOf(address)":"70a08231","borrow(uint256,address)":"4b3fd148","convertToAssets(uint256)":"07a2d13a","convertToJuniorAssets(uint256)":"3bfec6a7","debtOf(address)":"d283e75f","decimals()":"313ce567","demoteToSenior(uint256,address)":"0a109395","deposit(uint256,address)":"6e553f65","interestRateModel()":"f3fdb15a","irm()":"28e8fe7d","j()":"b582ec5f","maxWithdraw(address)":"ce96cb77","mkt()":"7cc5b1e6","previewWithdrawJunior(uint256)":"6b6c0f1c","psJuniorRay()":"feee9c9a","psSeniorRay()":"9eb0937d","repay(uint256,address)":"acb70815","riskManagerShim()":"1b800634","s()":"86b714e2","usdc()":"3e413bee","withdraw(uint256,address,address)":"b460af94"},"id":34}