{"abi":[{"type":"constructor","inputs":[{"name":"aprBps","type":"uint256","internalType":"uint256"}],"stateMutability":"nonpayable"},{"type":"function","name":"computeInterestRate","inputs":[{"name":"vault","type":"address","internalType":"address"},{"name":"","type":"uint256","internalType":"uint256"},{"name":"","type":"uint256","internalType":"uint256"}],"outputs":[{"name":"rate","type":"uint256","internalType":"uint256"}],"stateMutability":"view"},{"type":"function","name":"computeInterestRateView","inputs":[{"name":"","type":"address","internalType":"address"},{"name":"","type":"uint256","internalType":"uint256"},{"name":"","type":"uint256","internalType":"uint256"}],"outputs":[{"name":"rate","type":"uint256","internalType":"uint256"}],"stateMutability":"view"},{"type":"function","name":"ratePerSecondRay","inputs":[],"outputs":[{"name":"","type":"uint256","internalType":"uint256"}],"stateMutability":"view"},{"type":"error","name":"E_IRMUpdateUnauthorized","inputs":[]}],"bytecode":{"object":"0x60a060405234801561000f575f5ffd5b506040516104a23803806104a2833981810160405281019061003191906100a9565b6301e133806127106b033b2e3c9fd0803ce8000000836100519190610101565b61005b919061016f565b610065919061016f565b608081815250505061019f565b5f5ffd5b5f819050919050565b61008881610076565b8114610092575f5ffd5b50565b5f815190506100a38161007f565b92915050565b5f602082840312156100be576100bd610072565b5b5f6100cb84828501610095565b91505092915050565b7f4e487b71000000000000000000000000000000000000000000000000000000005f52601160045260245ffd5b5f61010b82610076565b915061011683610076565b925082820261012481610076565b9150828204841483151761013b5761013a6100d4565b5b5092915050565b7f4e487b71000000000000000000000000000000000000000000000000000000005f52601260045260245ffd5b5f61017982610076565b915061018483610076565b92508261019457610193610142565b5b828204905092915050565b6080516102df6101c35f395f818160c40152818160ee015261017801526102df5ff3fe608060405234801561000f575f5ffd5b506004361061003f575f3560e01c80632e34c872146100435780633eb8880414610073578063bca02c1314610091575b5f5ffd5b61005d60048036038101906100589190610231565b6100c1565b60405161006a9190610290565b60405180910390f35b61007b6100ec565b6040516100889190610290565b60405180910390f35b6100ab60048036038101906100a69190610231565b610110565b6040516100b89190610290565b60405180910390f35b5f7f000000000000000000000000000000000000000000000000000000000000000090509392505050565b7f000000000000000000000000000000000000000000000000000000000000000081565b5f8373ffffffffffffffffffffffffffffffffffffffff163373ffffffffffffffffffffffffffffffffffffffff1614610176576040517f35a4399400000000000000000000000000000000000000000000000000000000815260040160405180910390fd5b7f000000000000000000000000000000000000000000000000000000000000000090509392505050565b5f5ffd5b5f73ffffffffffffffffffffffffffffffffffffffff82169050919050565b5f6101cd826101a4565b9050919050565b6101dd816101c3565b81146101e7575f5ffd5b50565b5f813590506101f8816101d4565b92915050565b5f819050919050565b610210816101fe565b811461021a575f5ffd5b50565b5f8135905061022b81610207565b92915050565b5f5f5f60608486031215610248576102476101a0565b5b5f610255868287016101ea565b93505060206102668682870161021d565b92505060406102778682870161021d565b9150509250925092565b61028a816101fe565b82525050565b5f6020820190506102a35f830184610281565b9291505056fea2646970667358221220e29997e4129dc119358b1d35b6380aeebfa6400f6a0c8b1af4b1ac0d490ffa1c64736f6c634300081e0033","linkReferences":{}},"methodIdentifiers":{"computeInterestRate(address,uint256,uint256)":"bca02c13","computeInterestRateView(address,uint256,uint256)":"2e34c872","ratePerSecondRay()":"3eb88804"},"id":37}