{"abi":[{"type":"constructor","inputs":[{"name":"sUSDC_","type":"address","internalType":"contract IERC20"},{"name":"owner_","type":"address","internalType":"address"}],"stateMutability":"nonpayable"},{"type":"function","name":"allowance","inputs":[{"name":"owner","type":"address","internalType":"address"},{"name":"spender","type":"address","internalType":"address"}],"outputs":[{"name":"","type":"uint256","internalType":"uint256"}],"stateMutability":"view"},{"type":"function","name":"approve","inputs":[{"name":"spender","type":"address","internalType":"address"},{"name":"value","type":"uint256","internalType":"uint256"}],"outputs":[{"name":"","type":"bool","internalType":"bool"}],"stateMutability":"nonpayable"},{"type":"function","name":"asset","inputs":[],"outputs":[{"name":"","type":"address","internalType":"address"}],"stateMutability":"view"},{"type":"function","name":"balanceOf","inputs":[{"name":"account","type":"address","internalType":"address"}],"outputs":[{"name":"","type":"uint256","internalType":"uint256"}],"stateMutability":"view"},{"type":"function","name":"convertToAssets","inputs":[{"name":"shares","type":"uint256","internalType":"uint256"}],"outputs":[{"name":"","type":"uint256","internalType":"uint256"}],"stateMutability":"view"},{"type":"function","name":"convertToShares","inputs":[{"name":"assets","type":"uint256","internalType":"uint256"}],"outputs":[{"name":"","type":"uint256","internalType":"uint256"}],"stateMutability":"view"},{"type":"function","name":"decimals","inputs":[],"outputs":[{"name":"","type":"uint8","internalType":"uint8"}],"stateMutability":"view"},{"type":"function","name":"deposit","inputs":[{"name":"assets","type":"uint256","internalType":"uint256"},{"name":"receiver","type":"address","internalType":"address"}],"outputs":[{"name":"","type":"uint256","internalType":"uint256"}],"stateMutability":"nonpayable"},{"type":"function","name":"maxDeposit","inputs":[{"name":"","type":"address","internalType":"address"}],"outputs":[{"name":"","type":"uint256","internalType":"uint256"}],"stateMutability":"view"},{"type":"function","name":"maxMint","inputs":[{"name":"","type":"address","internalType":"address"}],"outputs":[{"name":"","type":"uint256","internalType":"uint256"}],"stateMutability":"view"},{"type":"function","name":"maxRedeem","inputs":[{"name":"owner","type":"address","internalType":"address"}],"outputs":[{"name":"","type":"uint256","internalType":"uint256"}],"stateMutability":"view"},{"type":"function","name":"maxWithdraw","inputs":[{"name":"owner","type":"address","internalType":"address"}],"outputs":[{"name":"","type":"uint256","internalType":"uint256"}],"stateMutability":"view"},{"type":"function","name":"mint","inputs":[{"name":"shares","type":"uint256","internalType":"uint256"},{"name":"receiver","type":"address","internalType":"address"}],"outputs":[{"name":"","type":"uint256","internalType":"uint256"}],"stateMutability":"nonpayable"},{"type":"function","name":"name","inputs":[],"outputs":[{"name":"","type":"string","internalType":"string"}],"stateMutability":"view"},{"type":"function","name":"owner","inputs":[],"outputs":[{"name":"","type":"address","internalType":"address"}],"stateMutability":"view"},{"type":"function","name":"previewDeposit","inputs":[{"name":"assets","type":"uint256","internalType":"uint256"}],"outputs":[{"name":"","type":"uint256","internalType":"uint256"}],"stateMutability":"view"},{"type":"function","name":"previewMint","inputs":[{"name":"shares","type":"uint256","internalType":"uint256"}],"outputs":[{"name":"","type":"uint256","internalType":"uint256"}],"stateMutability":"view"},{"type":"function","name":"previewRedeem","inputs":[{"name":"shares","type":"uint256","internalType":"uint256"}],"outputs":[{"name":"","type":"uint256","internalType":"uint256"}],"stateMutability":"view"},{"type":"function","name":"previewWithdraw","inputs":[{"name":"assets","type":"uint256","internalType":"uint256"}],"outputs":[{"name":"","type":"uint256","internalType":"uint256"}],"stateMutability":"view"},{"type":"function","name":"redeem","inputs":[{"name":"shares","type":"uint256","internalType":"uint256"},{"name":"receiver","type":"address","internalType":"address"},{"name":"owner","type":"address","internalType":"address"}],"outputs":[{"name":"","type":"uint256","internalType":"uint256"}],"stateMutability":"nonpayable"},{"type":"function","name":"renounceOwnership","inputs":[],"outputs":[],"stateMutability":"nonpayable"},{"type":"function","name":"symbol","inputs":[],"outputs":[{"name":"","type":"string","internalType":"string"}],"stateMutability":"view"},{"type":"function","name":"totalAssets","inputs":[],"outputs":[{"name":"","type":"uint256","internalType":"uint256"}],"stateMutability":"view"},{"type":"function","name":"totalSupply","inputs":[],"outputs":[{"name":"","type":"uint256","internalType":"uint256"}],"stateMutability":"view"},{"type":"function","name":"transfer","inputs":[{"name":"to","type":"address","internalType":"address"},{"name":"value","type":"uint256","internalType":"uint256"}],"outputs":[{"name":"","type":"bool","internalType":"bool"}],"stateMutability":"nonpayable"},{"type":"function","name":"transferFrom","inputs":[{"name":"from","type":"address","internalType":"address"},{"name":"to","type":"address","internalType":"address"},{"name":"value","type":"uint256","internalType":"uint256"}],"outputs":[{"name":"","type":"bool","internalType":"bool"}],"stateMutability":"nonpayable"},{"type":"function","name":"transferOwnership","inputs":[{"name":"newOwner","type":"address","internalType":"address"}],"outputs":[],"stateMutability":"nonpayable"},{"type":"function","name":"withdraw","inputs":[{"name":"assets","type":"uint256","internalType":"uint256"},{"name":"receiver","type":"address","internalType":"address"},{"name":"owner","type":"address","internalType":"address"}],"outputs":[{"name":"","type":"uint256","internalType":"uint256"}],"stateMutability":"nonpayable"},{"type":"event","name":"Approval","inputs":[{"name":"owner","type":"address","indexed":true,"internalType":"address"},{"name":"spender","type":"address","indexed":true,"internalType":"address"},{"name":"value","type":"uint256","indexed":false,"internalType":"uint256"}],"anonymous":false},{"type":"event","name":"Deposit","inputs":[{"name":"sender","type":"address","indexed":true,"internalType":"address"},{"name":"owner","type":"address","indexed":true,"internalType":"address"},{"name":"assets","type":"uint256","indexed":false,"internalType":"uint256"},{"name":"shares","type":"uint256","indexed":false,"internalType":"uint256"}],"anonymous":false},{"type":"event","name":"OwnershipTransferred","inputs":[{"name":"previousOwner","type":"address","indexed":true,"internalType":"address"},{"name":"newOwner","type":"address","indexed":true,"internalType":"address"}],"anonymous":false},{"type":"event","name":"Transfer","inputs":[{"name":"from","type":"address","indexed":true,"internalType":"address"},{"name":"to","type":"address","indexed":true,"internalType":"address"},{"name":"value","type":"uint256","indexed":false,"internalType":"uint256"}],"anonymous":false},{"type":"event","name":"Withdraw","inputs":[{"name":"sender","type":"address","indexed":true,"internalType":"address"},{"name":"receiver","type":"address","indexed":true,"internalType":"address"},{"name":"owner","type":"address","indexed":true,"internalType":"address"},{"name":"assets","type":"uint256","indexed":false,"internalType":"uint256"},{"name":"shares","type":"uint256","indexed":false,"internalType":"uint256"}],"anonymous":false},{"type":"error","name":"ERC20InsufficientAllowance","inputs":[{"name":"spender","type":"address","internalType":"address"},{"name":"allowance","type":"uint256","internalType":"uint256"},{"name":"needed","type":"uint256","internalType":"uint256"}]},{"type":"error","name":"ERC20InsufficientBalance","inputs":[{"name":"sender","type":"address","internalType":"address"},{"name":"balance","type":"uint256","internalType":"uint256"},{"name":"needed","type":"uint256","internalType":"uint256"}]},{"type":"error","name":"ERC20InvalidApprover","inputs":[{"name":"approver","type":"address","internalType":"address"}]},{"type":"error","name":"ERC20InvalidReceiver","inputs":[{"name":"receiver","type":"address","internalType":"address"}]},{"type":"error","name":"ERC20InvalidSender","inputs":[{"name":"sender","type":"address","internalType":"address"}]},{"type":"error","name":"ERC20InvalidSpender","inputs":[{"name":"spender","type":"address","internalType":"address"}]},{"type":"error","name":"ERC4626ExceededMaxDeposit","inputs":[{"name":"receiver","type":"address","internalType":"address"},{"name":"assets","type":"uint256","internalType":"uint256"},{"name":"max","type":"uint256","internalType":"uint256"}]},{"type":"error","name":"ERC4626ExceededMaxMint","inputs":[{"name":"receiver","type":"address","internalType":"address"},{"name":"shares","type":"uint256","internalType":"uint256"},{"name":"max","type":"uint256","internalType":"uint256"}]},{"type":"error","name":"ERC4626ExceededMaxRedeem","inputs":[{"name":"owner","type":"address","internalType":"address"},{"name":"shares","type":"uint256","internalType":"uint256"},{"name":"max","type":"uint256","internalType":"uint256"}]},{"type":"error","name":"ERC4626ExceededMaxWithdraw","inputs":[{"name":"owner","type":"address","internalType":"address"},{"name":"assets","type":"uint256","internalType":"uint256"},{"name":"max","type":"uint256","internalType":"uint256"}]},{"type":"error","name":"OwnableInvalidOwner","inputs":[{"name":"owner","type":"address","internalType":"address"}]},{"type":"error","name":"OwnableUnauthorizedAccount","inputs":[{"name":"account","type":"address","internalType":"address"}]},{"type":"error","name":"SafeERC20FailedOperation","inputs":[{"name":"token","type":"address","internalType":"address"}]}],"bytecode":{"object":"0x60c060405234801561000f575f5ffd5b50604051612a84380380612a8483398181016040528101906100319190610414565b80826040518060400160405280601281526020017f4a756e696f72207355534443205661756c7400000000000000000000000000008152506040518060400160405280600581526020017f6a5553444300000000000000000000000000000000000000000000000000000081525081600390816100ae919061068f565b5080600490816100be919061068f565b5050505f5f6100d2836101af60201b60201c565b91509150816100e25760126100e4565b805b60ff1660a08160ff16815250508273ffffffffffffffffffffffffffffffffffffffff1660808173ffffffffffffffffffffffffffffffffffffffff16815250505050505f73ffffffffffffffffffffffffffffffffffffffff168173ffffffffffffffffffffffffffffffffffffffff1603610198575f6040517f1e4fbdf700000000000000000000000000000000000000000000000000000000815260040161018f919061076d565b60405180910390fd5b6101a7816102b860201b60201c565b505050610843565b5f5f5f5f8473ffffffffffffffffffffffffffffffffffffffff1660405160240160405160208183030381529060405263313ce56760e01b6020820180517bffffffffffffffffffffffffffffffffffffffffffffffffffffffff838183161783525050505060405161022291906107d8565b5f60405180830381855afa9150503d805f811461025a576040519150601f19603f3d011682016040523d82523d5f602084013e61025f565b606091505b509150915081801561027357506020815110155b156102aa575f8180602001905181019061028d9190610818565b905060ff801681116102a857600181945094505050506102b3565b505b5f5f9350935050505b915091565b5f60055f9054906101000a900473ffffffffffffffffffffffffffffffffffffffff1690508160055f6101000a81548173ffffffffffffffffffffffffffffffffffffffff021916908373ffffffffffffffffffffffffffffffffffffffff1602179055508173ffffffffffffffffffffffffffffffffffffffff168173ffffffffffffffffffffffffffffffffffffffff167f8be0079c531659141344cd1fd0a4f28419497f9722a3daafe3b4186f6b6457e060405160405180910390a35050565b5f5ffd5b5f73ffffffffffffffffffffffffffffffffffffffff82169050919050565b5f6103a88261037f565b9050919050565b5f6103b98261039e565b9050919050565b6103c9816103af565b81146103d3575f5ffd5b50565b5f815190506103e4816103c0565b92915050565b6103f38161039e565b81146103fd575f5ffd5b50565b5f8151905061040e816103ea565b92915050565b5f5f6040838503121561042a5761042961037b565b5b5f610437858286016103d6565b925050602061044885828601610400565b9150509250929050565b5f81519050919050565b7f4e487b71000000000000000000000000000000000000000000000000000000005f52604160045260245ffd5b7f4e487b71000000000000000000000000000000000000000000000000000000005f52602260045260245ffd5b5f60028204905060018216806104cd57607f821691505b6020821081036104e0576104df610489565b5b50919050565b5f819050815f5260205f209050919050565b5f6020601f8301049050919050565b5f82821b905092915050565b5f600883026105427fffffffffffffffffffffffffffffffffffffffffffffffffffffffffffffffff82610507565b61054c8683610507565b95508019841693508086168417925050509392505050565b5f819050919050565b5f819050919050565b5f61059061058b61058684610564565b61056d565b610564565b9050919050565b5f819050919050565b6105a983610576565b6105bd6105b582610597565b848454610513565b825550505050565b5f5f905090565b6105d46105c5565b6105df8184846105a0565b505050565b5b81811015610602576105f75f826105cc565b6001810190506105e5565b5050565b601f82111561064757610618816104e6565b610621846104f8565b81016020851015610630578190505b61064461063c856104f8565b8301826105e4565b50505b505050565b5f82821c905092915050565b5f6106675f198460080261064c565b1980831691505092915050565b5f61067f8383610658565b9150826002028217905092915050565b61069882610452565b67ffffffffffffffff8111156106b1576106b061045c565b5b6106bb82546104b6565b6106c6828285610606565b5f60209050601f8311600181146106f7575f84156106e5578287015190505b6106ef8582610674565b865550610756565b601f198416610705866104e6565b5f5b8281101561072c57848901518255600182019150602085019450602081019050610707565b868310156107495784890151610745601f891682610658565b8355505b6001600288020188555050505b505050505050565b6107678161039e565b82525050565b5f6020820190506107805f83018461075e565b92915050565b5f81519050919050565b5f81905092915050565b8281835e5f83830152505050565b5f6107b282610786565b6107bc8185610790565b93506107cc81856020860161079a565b80840191505092915050565b5f6107e382846107a8565b915081905092915050565b6107f781610564565b8114610801575f5ffd5b50565b5f81519050610812816107ee565b92915050565b5f6020828403121561082d5761082c61037b565b5b5f61083a84828501610804565b91505092915050565b60805160a0516122206108645f395f6107ec01525f61081d01526122205ff3fe608060405234801561000f575f5ffd5b50600436106101c2575f3560e01c80638da5cb5b116100f7578063c63d75b611610095578063d905777e1161006f578063d905777e146105a2578063dd62ed3e146105d2578063ef8b30f714610602578063f2fde38b14610632576101c2565b8063c63d75b614610512578063c6e6f59214610542578063ce96cb7714610572576101c2565b8063a9059cbb116100d1578063a9059cbb14610452578063b3d7f6b914610482578063b460af94146104b2578063ba087652146104e2576101c2565b80638da5cb5b146103e657806394bf804d1461040457806395d89b4114610434576101c2565b8063313ce567116101645780634cdad5061161013e5780634cdad5061461034c5780636e553f651461037c57806370a08231146103ac578063715018a6146103dc576101c2565b8063313ce567146102e057806338d52e0f146102fe578063402d267d1461031c576101c2565b8063095ea7b3116101a0578063095ea7b3146102325780630a28a4771461026257806318160ddd1461029257806323b872dd146102b0576101c2565b806301e1d114146101c657806306fdde03146101e457806307a2d13a14610202575b5f5ffd5b6101ce61064e565b6040516101db9190611a8f565b60405180910390f35b6101ec6106d3565b6040516101f99190611b18565b60405180910390f35b61021c60048036038101906102179190611b66565b610763565b6040516102299190611a8f565b60405180910390f35b61024c60048036038101906102479190611beb565b610775565b6040516102599190611c43565b60405180910390f35b61027c60048036038101906102779190611b66565b610797565b6040516102899190611a8f565b60405180910390f35b61029a6107aa565b6040516102a79190611a8f565b60405180910390f35b6102ca60048036038101906102c59190611c5c565b6107b3565b6040516102d79190611c43565b60405180910390f35b6102e86107e1565b6040516102f59190611cc7565b60405180910390f35b61030661081a565b6040516103139190611cef565b60405180910390f35b61033660048036038101906103319190611d08565b610841565b6040516103439190611a8f565b60405180910390f35b61036660048036038101906103619190611b66565b61086a565b6040516103739190611a8f565b60405180910390f35b61039660048036038101906103919190611d33565b61087c565b6040516103a39190611a8f565b60405180910390f35b6103c660048036038101906103c19190611d08565b6108fc565b6040516103d39190611a8f565b60405180910390f35b6103e4610941565b005b6103ee610954565b6040516103fb9190611cef565b60405180910390f35b61041e60048036038101906104199190611d33565b61097c565b60405161042b9190611a8f565b60405180910390f35b61043c6109fc565b6040516104499190611b18565b60405180910390f35b61046c60048036038101906104679190611beb565b610a8c565b6040516104799190611c43565b60405180910390f35b61049c60048036038101906104979190611b66565b610aae565b6040516104a99190611a8f565b60405180910390f35b6104cc60048036038101906104c79190611d71565b610ac1565b6040516104d99190611a8f565b60405180910390f35b6104fc60048036038101906104f79190611d71565b610b43565b6040516105099190611a8f565b60405180910390f35b61052c60048036038101906105279190611d08565b610bc5565b6040516105399190611a8f565b60405180910390f35b61055c60048036038101906105579190611b66565b610bee565b6040516105699190611a8f565b60405180910390f35b61058c60048036038101906105879190611d08565b610c00565b6040516105999190611a8f565b60405180910390f35b6105bc60048036038101906105b79190611d08565b610c1a565b6040516105c99190611a8f565b60405180910390f35b6105ec60048036038101906105e79190611dc1565b610c2b565b6040516105f99190611a8f565b60405180910390f35b61061c60048036038101906106179190611b66565b610cad565b6040516106299190611a8f565b60405180910390f35b61064c60048036038101906106479190611d08565b610cbf565b005b5f61065761081a565b73ffffffffffffffffffffffffffffffffffffffff166370a08231306040518263ffffffff1660e01b815260040161068f9190611cef565b602060405180830381865afa1580156106aa573d5f5f3e3d5ffd5b505050506040513d601f19601f820116820180604052508101906106ce9190611e13565b905090565b6060600380546106e290611e6b565b80601f016020809104026020016040519081016040528092919081815260200182805461070e90611e6b565b80156107595780601f1061073057610100808354040283529160200191610759565b820191905f5260205f20905b81548152906001019060200180831161073c57829003601f168201915b5050505050905090565b5f61076e825f610d43565b9050919050565b5f5f61077f610d9b565b905061078c818585610da2565b600191505092915050565b5f6107a3826001610db4565b9050919050565b5f600254905090565b5f5f6107bd610d9b565b90506107ca858285610e0c565b6107d5858585610e9f565b60019150509392505050565b5f6107ea610f8f565b7f00000000000000000000000000000000000000000000000000000000000000006108159190611ec8565b905090565b5f7f0000000000000000000000000000000000000000000000000000000000000000905090565b5f7fffffffffffffffffffffffffffffffffffffffffffffffffffffffffffffffff9050919050565b5f610875825f610d43565b9050919050565b5f5f61088783610841565b9050808411156108d2578284826040517f79012fb20000000000000000000000000000000000000000000000000000000081526004016108c993929190611efc565b60405180910390fd5b5f6108dc85610cad565b90506108f16108e9610d9b565b858784610f96565b809250505092915050565b5f5f5f8373ffffffffffffffffffffffffffffffffffffffff1673ffffffffffffffffffffffffffffffffffffffff1681526020019081526020015f20549050919050565b610949611020565b6109525f6110a7565b565b5f60055f9054906101000a900473ffffffffffffffffffffffffffffffffffffffff16905090565b5f5f61098783610bc5565b9050808411156109d2578284826040517f284ff6670000000000000000000000000000000000000000000000000000000081526004016109c993929190611efc565b60405180910390fd5b5f6109dc85610aae565b90506109f16109e9610d9b565b858388610f96565b809250505092915050565b606060048054610a0b90611e6b565b80601f0160208091040260200160405190810160405280929190818152602001828054610a3790611e6b565b8015610a825780601f10610a5957610100808354040283529160200191610a82565b820191905f5260205f20905b815481529060010190602001808311610a6557829003601f168201915b5050505050905090565b5f5f610a96610d9b565b9050610aa3818585610e9f565b600191505092915050565b5f610aba826001610d43565b9050919050565b5f5f610acc83610c00565b905080851115610b17578285826040517ffe9cceec000000000000000000000000000000000000000000000000000000008152600401610b0e93929190611efc565b60405180910390fd5b5f610b2186610797565b9050610b37610b2e610d9b565b8686898561116a565b80925050509392505050565b5f5f610b4e83610c1a565b905080851115610b99578285826040517fb94abeec000000000000000000000000000000000000000000000000000000008152600401610b9093929190611efc565b60405180910390fd5b5f610ba38661086a565b9050610bb9610bb0610d9b565b8686848a61116a565b80925050509392505050565b5f7fffffffffffffffffffffffffffffffffffffffffffffffffffffffffffffffff9050919050565b5f610bf9825f610db4565b9050919050565b5f610c13610c0d836108fc565b5f610d43565b9050919050565b5f610c24826108fc565b9050919050565b5f60015f8473ffffffffffffffffffffffffffffffffffffffff1673ffffffffffffffffffffffffffffffffffffffff1681526020019081526020015f205f8373ffffffffffffffffffffffffffffffffffffffff1673ffffffffffffffffffffffffffffffffffffffff1681526020019081526020015f2054905092915050565b5f610cb8825f610db4565b9050919050565b610cc7611020565b5f73ffffffffffffffffffffffffffffffffffffffff168173ffffffffffffffffffffffffffffffffffffffff1603610d37575f6040517f1e4fbdf7000000000000000000000000000000000000000000000000000000008152600401610d2e9190611cef565b60405180910390fd5b610d40816110a7565b50565b5f610d936001610d5161064e565b610d5b9190611f31565b610d63610f8f565b600a610d6f9190612093565b610d776107aa565b610d819190611f31565b848661124a909392919063ffffffff16565b905092915050565b5f33905090565b610daf8383836001611297565b505050565b5f610e04610dc0610f8f565b600a610dcc9190612093565b610dd46107aa565b610dde9190611f31565b6001610de861064e565b610df29190611f31565b848661124a909392919063ffffffff16565b905092915050565b5f610e178484610c2b565b90507fffffffffffffffffffffffffffffffffffffffffffffffffffffffffffffffff811015610e995781811015610e8a578281836040517ffb8f41b2000000000000000000000000000000000000000000000000000000008152600401610e8193929190611efc565b60405180910390fd5b610e9884848484035f611297565b5b50505050565b5f73ffffffffffffffffffffffffffffffffffffffff168373ffffffffffffffffffffffffffffffffffffffff1603610f0f575f6040517f96c6fd1e000000000000000000000000000000000000000000000000000000008152600401610f069190611cef565b60405180910390fd5b5f73ffffffffffffffffffffffffffffffffffffffff168273ffffffffffffffffffffffffffffffffffffffff1603610f7f575f6040517fec442f05000000000000000000000000000000000000000000000000000000008152600401610f769190611cef565b60405180910390fd5b610f8a838383611466565b505050565b5f5f905090565b610fa9610fa161081a565b85308561167f565b610fb38382611701565b8273ffffffffffffffffffffffffffffffffffffffff168473ffffffffffffffffffffffffffffffffffffffff167fdcbc1c05240f31ff3ad067ef1ee35ce4997762752e3a095284754544f4c709d784846040516110129291906120dd565b60405180910390a350505050565b611028610d9b565b73ffffffffffffffffffffffffffffffffffffffff16611046610954565b73ffffffffffffffffffffffffffffffffffffffff16146110a557611069610d9b565b6040517f118cdaa700000000000000000000000000000000000000000000000000000000815260040161109c9190611cef565b60405180910390fd5b565b5f60055f9054906101000a900473ffffffffffffffffffffffffffffffffffffffff1690508160055f6101000a81548173ffffffffffffffffffffffffffffffffffffffff021916908373ffffffffffffffffffffffffffffffffffffffff1602179055508173ffffffffffffffffffffffffffffffffffffffff168173ffffffffffffffffffffffffffffffffffffffff167f8be0079c531659141344cd1fd0a4f28419497f9722a3daafe3b4186f6b6457e060405160405180910390a35050565b8273ffffffffffffffffffffffffffffffffffffffff168573ffffffffffffffffffffffffffffffffffffffff16146111a9576111a8838683610e0c565b5b6111b38382611780565b6111c56111be61081a565b85846117ff565b8273ffffffffffffffffffffffffffffffffffffffff168473ffffffffffffffffffffffffffffffffffffffff168673ffffffffffffffffffffffffffffffffffffffff167ffbde797d201c681b91056529119e0b02407c7bb96a4a2c75c01fc9667232c8db858560405161123b9291906120dd565b60405180910390a45050505050565b5f6112786112578361187e565b801561127357505f848061126e5761126d612104565b5b868809115b6118ab565b6112838686866118b6565b61128d9190611f31565b9050949350505050565b5f73ffffffffffffffffffffffffffffffffffffffff168473ffffffffffffffffffffffffffffffffffffffff1603611307575f6040517fe602df050000000000000000000000000000000000000000000000000000000081526004016112fe9190611cef565b60405180910390fd5b5f73ffffffffffffffffffffffffffffffffffffffff168373ffffffffffffffffffffffffffffffffffffffff1603611377575f6040517f94280d6200000000000000000000000000000000000000000000000000000000815260040161136e9190611cef565b60405180910390fd5b8160015f8673ffffffffffffffffffffffffffffffffffffffff1673ffffffffffffffffffffffffffffffffffffffff1681526020019081526020015f205f8573ffffffffffffffffffffffffffffffffffffffff1673ffffffffffffffffffffffffffffffffffffffff1681526020019081526020015f20819055508015611460578273ffffffffffffffffffffffffffffffffffffffff168473ffffffffffffffffffffffffffffffffffffffff167f8c5be1e5ebec7d5bd14f71427d1e84f3dd0314c0f7b2291e5b200ac8c7c3b925846040516114579190611a8f565b60405180910390a35b50505050565b5f73ffffffffffffffffffffffffffffffffffffffff168373ffffffffffffffffffffffffffffffffffffffff16036114b6578060025f8282546114aa9190611f31565b92505081905550611584565b5f5f5f8573ffffffffffffffffffffffffffffffffffffffff1673ffffffffffffffffffffffffffffffffffffffff1681526020019081526020015f205490508181101561153f578381836040517fe450d38c00000000000000000000000000000000000000000000000000000000815260040161153693929190611efc565b60405180910390fd5b8181035f5f8673ffffffffffffffffffffffffffffffffffffffff1673ffffffffffffffffffffffffffffffffffffffff1681526020019081526020015f2081905550505b5f73ffffffffffffffffffffffffffffffffffffffff168273ffffffffffffffffffffffffffffffffffffffff16036115cb578060025f8282540392505081905550611615565b805f5f8473ffffffffffffffffffffffffffffffffffffffff1673ffffffffffffffffffffffffffffffffffffffff1681526020019081526020015f205f82825401925050819055505b8173ffffffffffffffffffffffffffffffffffffffff168373ffffffffffffffffffffffffffffffffffffffff167fddf252ad1be2c89b69c2b068fc378daa952ba7f163c4a11628f55a4df523b3ef836040516116729190611a8f565b60405180910390a3505050565b6116fb848573ffffffffffffffffffffffffffffffffffffffff166323b872dd8686866040516024016116b493929190612131565b604051602081830303815290604052915060e01b6020820180517bffffffffffffffffffffffffffffffffffffffffffffffffffffffff8381831617835250505050611995565b50505050565b5f73ffffffffffffffffffffffffffffffffffffffff168273ffffffffffffffffffffffffffffffffffffffff1603611771575f6040517fec442f050000000000000000000000000000000000000000000000000000000081526004016117689190611cef565b60405180910390fd5b61177c5f8383611466565b5050565b5f73ffffffffffffffffffffffffffffffffffffffff168273ffffffffffffffffffffffffffffffffffffffff16036117f0575f6040517f96c6fd1e0000000000000000000000000000000000000000000000000000000081526004016117e79190611cef565b60405180910390fd5b6117fb825f83611466565b5050565b611879838473ffffffffffffffffffffffffffffffffffffffff1663a9059cbb8585604051602401611832929190612166565b604051602081830303815290604052915060e01b6020820180517bffffffffffffffffffffffffffffffffffffffffffffffffffffffff8381831617835250505050611995565b505050565b5f600160028360038111156118965761189561218d565b5b6118a091906121ba565b60ff16149050919050565b5f8115159050919050565b5f5f5f6118c38686611a30565b915091505f82036118e8578381816118de576118dd612104565b5b049250505061198e565b818411611907576119066119015f861460126011611a4d565b611a66565b5b5f8486880990508181118303925080820391505f855f038616905080860495508083049250600181825f0304019050808402831792505f600287600302189050808702600203810290508087026002038102905080870260020381029050808702600203810290508087026002038102905080870260020381029050808402955050505050505b9392505050565b5f5f60205f8451602086015f885af1806119b4576040513d5f823e3d81fd5b3d92505f519150505f82146119cd5760018114156119e8565b5f8473ffffffffffffffffffffffffffffffffffffffff163b145b15611a2a57836040517f5274afe7000000000000000000000000000000000000000000000000000000008152600401611a219190611cef565b60405180910390fd5b50505050565b5f5f5f198385098385029150818110828203039250509250929050565b5f611a57846118ab565b82841802821890509392505050565b634e487b715f52806020526024601cfd5b5f819050919050565b611a8981611a77565b82525050565b5f602082019050611aa25f830184611a80565b92915050565b5f81519050919050565b5f82825260208201905092915050565b8281835e5f83830152505050565b5f601f19601f8301169050919050565b5f611aea82611aa8565b611af48185611ab2565b9350611b04818560208601611ac2565b611b0d81611ad0565b840191505092915050565b5f6020820190508181035f830152611b308184611ae0565b905092915050565b5f5ffd5b611b4581611a77565b8114611b4f575f5ffd5b50565b5f81359050611b6081611b3c565b92915050565b5f60208284031215611b7b57611b7a611b38565b5b5f611b8884828501611b52565b91505092915050565b5f73ffffffffffffffffffffffffffffffffffffffff82169050919050565b5f611bba82611b91565b9050919050565b611bca81611bb0565b8114611bd4575f5ffd5b50565b5f81359050611be581611bc1565b92915050565b5f5f60408385031215611c0157611c00611b38565b5b5f611c0e85828601611bd7565b9250506020611c1f85828601611b52565b9150509250929050565b5f8115159050919050565b611c3d81611c29565b82525050565b5f602082019050611c565f830184611c34565b92915050565b5f5f5f60608486031215611c7357611c72611b38565b5b5f611c8086828701611bd7565b9350506020611c9186828701611bd7565b9250506040611ca286828701611b52565b9150509250925092565b5f60ff82169050919050565b611cc181611cac565b82525050565b5f602082019050611cda5f830184611cb8565b92915050565b611ce981611bb0565b82525050565b5f602082019050611d025f830184611ce0565b92915050565b5f60208284031215611d1d57611d1c611b38565b5b5f611d2a84828501611bd7565b91505092915050565b5f5f60408385031215611d4957611d48611b38565b5b5f611d5685828601611b52565b9250506020611d6785828601611bd7565b9150509250929050565b5f5f5f60608486031215611d8857611d87611b38565b5b5f611d9586828701611b52565b9350506020611da686828701611bd7565b9250506040611db786828701611bd7565b9150509250925092565b5f5f60408385031215611dd757611dd6611b38565b5b5f611de485828601611bd7565b9250506020611df585828601611bd7565b9150509250929050565b5f81519050611e0d81611b3c565b92915050565b5f60208284031215611e2857611e27611b38565b5b5f611e3584828501611dff565b91505092915050565b7f4e487b71000000000000000000000000000000000000000000000000000000005f52602260045260245ffd5b5f6002820490506001821680611e8257607f821691505b602082108103611e9557611e94611e3e565b5b50919050565b7f4e487b71000000000000000000000000000000000000000000000000000000005f52601160045260245ffd5b5f611ed282611cac565b9150611edd83611cac565b9250828201905060ff811115611ef657611ef5611e9b565b5b92915050565b5f606082019050611f0f5f830186611ce0565b611f1c6020830185611a80565b611f296040830184611a80565b949350505050565b5f611f3b82611a77565b9150611f4683611a77565b9250828201905080821115611f5e57611f5d611e9b565b5b92915050565b5f8160011c9050919050565b5f5f8291508390505b6001851115611fb957808604811115611f9557611f94611e9b565b5b6001851615611fa45780820291505b8081029050611fb285611f64565b9450611f79565b94509492505050565b5f82611fd1576001905061208c565b81611fde575f905061208c565b8160018114611ff45760028114611ffe5761202d565b600191505061208c565b60ff8411156120105761200f611e9b565b5b8360020a91508482111561202757612026611e9b565b5b5061208c565b5060208310610133831016604e8410600b84101617156120625782820a90508381111561205d5761205c611e9b565b5b61208c565b61206f8484846001611f70565b9250905081840481111561208657612085611e9b565b5b81810290505b9392505050565b5f61209d82611a77565b91506120a883611cac565b92506120d57fffffffffffffffffffffffffffffffffffffffffffffffffffffffffffffffff8484611fc2565b905092915050565b5f6040820190506120f05f830185611a80565b6120fd6020830184611a80565b9392505050565b7f4e487b71000000000000000000000000000000000000000000000000000000005f52601260045260245ffd5b5f6060820190506121445f830186611ce0565b6121516020830185611ce0565b61215e6040830184611a80565b949350505050565b5f6040820190506121795f830185611ce0565b6121866020830184611a80565b9392505050565b7f4e487b71000000000000000000000000000000000000000000000000000000005f52602160045260245ffd5b5f6121c482611cac565b91506121cf83611cac565b9250826121df576121de612104565b5b82820690509291505056fea2646970667358221220def4d56371e4a8ad811828479f6ffb608d4650ec3f881c077325bc784b5645b964736f6c634300081e0033","linkReferences":{}},"methodIdentifiers":{"allowance(address,address)":"dd62ed3e","approve(address,uint256)":"095ea7b3","asset()":"38d52e0f","balanceOf(address)":"70a08231","convertToAssets(uint256)":"07a2d13a","convertToShares(uint256)":"c6e6f592","decimals()":"313ce567","deposit(uint256,address)":"6e553f65","maxDeposit(address)":"402d267d","maxMint(address)":"c63d75b6","maxRedeem(address)":"d905777e","maxWithdraw(address)":"ce96cb77","mint(uint256,address)":"94bf804d","name()":"06fdde03","owner()":"8da5cb5b","previewDeposit(uint256)":"ef8b30f7","previewMint(uint256)":"b3d7f6b9","previewRedeem(uint256)":"4cdad506","previewWithdraw(uint256)":"0a28a477","redeem(uint256,address,address)":"ba087652","renounceOwnership()":"715018a6","symbol()":"95d89b41","totalAssets()":"01e1d114","totalSupply()":"18160ddd","transfer(address,uint256)":"a9059cbb","transferFrom(address,address,uint256)":"23b872dd","transferOwnership(address)":"f2fde38b","withdraw(uint256,address,address)":"b460af94"},"id":43}