{"abi":[{"type":"constructor","inputs":[{"name":"_asset","type":"address","internalType":"contract IERC20"},{"name":"_seniorVault","type":"address","internalType":"address"},{"name":"_irm","type":"address","internalType":"address"},{"name":"_clm","type":"address","internalType":"address"},{"name":"_owner","type":"address","internalType":"address"}],"stateMutability":"nonpayable"},{"type":"function","name":"accrue","inputs":[],"outputs":[],"stateMutability":"nonpayable"},{"type":"function","name":"asset","inputs":[],"outputs":[{"name":"","type":"address","internalType":"contract IERC20"}],"stateMutability":"view"},{"type":"function","name":"borrow","inputs":[{"name":"assets","type":"uint256","internalType":"uint256"},{"name":"receiver","type":"address","internalType":"address"}],"outputs":[{"name":"","type":"uint256","internalType":"uint256"}],"stateMutability":"nonpayable"},{"type":"function","name":"cash","inputs":[],"outputs":[{"name":"","type":"uint256","internalType":"uint256"}],"stateMutability":"view"},{"type":"function","name":"clm","inputs":[],"outputs":[{"name":"","type":"address","internalType":"contract ICreditLimitManager"}],"stateMutability":"view"},{"type":"function","name":"expectedBalances","inputs":[],"outputs":[{"name":"totalSupplyAssets","type":"uint256","internalType":"uint256"},{"name":"totalBorrowAssets","type":"uint256","internalType":"uint256"},{"name":"liquidity","type":"uint256","internalType":"uint256"}],"stateMutability":"view"},{"type":"function","name":"interestAccumulator","inputs":[],"outputs":[{"name":"","type":"uint256","internalType":"uint256"}],"stateMutability":"view"},{"type":"function","name":"interestRate","inputs":[],"outputs":[{"name":"ratePerSecondWad","type":"uint256","internalType":"uint256"}],"stateMutability":"view"},{"type":"function","name":"irm","inputs":[],"outputs":[{"name":"","type":"address","internalType":"contract IIRM"}],"stateMutability":"view"},{"type":"function","name":"lastAccrual","inputs":[],"outputs":[{"name":"","type":"uint64","internalType":"uint64"}],"stateMutability":"view"},{"type":"function","name":"owner","inputs":[],"outputs":[{"name":"","type":"address","internalType":"address"}],"stateMutability":"view"},{"type":"function","name":"positionOf","inputs":[{"name":"borrower","type":"address","internalType":"address"}],"outputs":[{"name":"debtAssets","type":"uint256","internalType":"uint256"}],"stateMutability":"view"},{"type":"function","name":"principalScaledOf","inputs":[{"name":"","type":"address","internalType":"address"}],"outputs":[{"name":"","type":"uint256","internalType":"uint256"}],"stateMutability":"view"},{"type":"function","name":"renounceOwnership","inputs":[],"outputs":[],"stateMutability":"nonpayable"},{"type":"function","name":"repay","inputs":[{"name":"assets","type":"uint256","internalType":"uint256"},{"name":"onBehalfOf","type":"address","internalType":"address"}],"outputs":[{"name":"","type":"uint256","internalType":"uint256"}],"stateMutability":"nonpayable"},{"type":"function","name":"seniorVault","inputs":[],"outputs":[{"name":"","type":"address","internalType":"address"}],"stateMutability":"view"},{"type":"function","name":"setCreditLineManager","inputs":[{"name":"newCLM","type":"address","internalType":"address"}],"outputs":[],"stateMutability":"nonpayable"},{"type":"function","name":"setIRM","inputs":[{"name":"newIRM","type":"address","internalType":"address"}],"outputs":[],"stateMutability":"nonpayable"},{"type":"function","name":"setSeniorVault","inputs":[{"name":"newSenior","type":"address","internalType":"address"}],"outputs":[],"stateMutability":"nonpayable"},{"type":"function","name":"supplyFromSenior","inputs":[{"name":"assets","type":"uint256","internalType":"uint256"}],"outputs":[],"stateMutability":"nonpayable"},{"type":"function","name":"totalBorrows","inputs":[],"outputs":[{"name":"","type":"uint256","internalType":"uint256"}],"stateMutability":"view"},{"type":"function","name":"totalPrincipalScaled","inputs":[],"outputs":[{"name":"","type":"uint256","internalType":"uint256"}],"stateMutability":"view"},{"type":"function","name":"transferOwnership","inputs":[{"name":"newOwner","type":"address","internalType":"address"}],"outputs":[],"stateMutability":"nonpayable"},{"type":"function","name":"withdrawToSenior","inputs":[{"name":"assets","type":"uint256","internalType":"uint256"}],"outputs":[],"stateMutability":"nonpayable"},{"type":"function","name":"writeDown","inputs":[{"name":"borrower","type":"address","internalType":"address"},{"name":"lossAssets","type":"uint256","internalType":"uint256"}],"outputs":[],"stateMutability":"nonpayable"},{"type":"event","name":"Accrued","inputs":[{"name":"acc","type":"uint256","indexed":false,"internalType":"uint256"},{"name":"lastAccrual","type":"uint64","indexed":false,"internalType":"uint64"},{"name":"rateWad","type":"uint256","indexed":false,"internalType":"uint256"}],"anonymous":false},{"type":"event","name":"Borrowed","inputs":[{"name":"borrower","type":"address","indexed":true,"internalType":"address"},{"name":"receiver","type":"address","indexed":true,"internalType":"address"},{"name":"assets","type":"uint256","indexed":false,"internalType":"uint256"}],"anonymous":false},{"type":"event","name":"OwnershipTransferred","inputs":[{"name":"previousOwner","type":"address","indexed":true,"internalType":"address"},{"name":"newOwner","type":"address","indexed":true,"internalType":"address"}],"anonymous":false},{"type":"event","name":"Repaid","inputs":[{"name":"payer","type":"address","indexed":true,"internalType":"address"},{"name":"onBehalfOf","type":"address","indexed":true,"internalType":"address"},{"name":"assets","type":"uint256","indexed":false,"internalType":"uint256"}],"anonymous":false},{"type":"event","name":"SuppliedFromSenior","inputs":[{"name":"assets","type":"uint256","indexed":false,"internalType":"uint256"}],"anonymous":false},{"type":"event","name":"WithdrawnToSenior","inputs":[{"name":"assets","type":"uint256","indexed":false,"internalType":"uint256"}],"anonymous":false},{"type":"event","name":"WrittenDown","inputs":[{"name":"borrower","type":"address","indexed":true,"internalType":"address"},{"name":"lossAssets","type":"uint256","indexed":false,"internalType":"uint256"}],"anonymous":false},{"type":"error","name":"OwnableInvalidOwner","inputs":[{"name":"owner","type":"address","internalType":"address"}]},{"type":"error","name":"OwnableUnauthorizedAccount","inputs":[{"name":"account","type":"address","internalType":"address"}]},{"type":"error","name":"ReentrancyGuardReentrantCall","inputs":[]},{"type":"error","name":"SafeERC20FailedOperation","inputs":[{"name":"token","type":"address","internalType":"address"}]}],"bytecode":{"object":"0x60a060405234801561000f575f5ffd5b506040516128e03803806128e08339818101604052810190610031919061045f565b805f73ffffffffffffffffffffffffffffffffffffffff168173ffffffffffffffffffffffffffffffffffffffff16036100a2575f6040517f1e4fbdf700000000000000000000000000000000000000000000000000000000815260040161009991906104e5565b60405180910390fd5b6100b18161030560201b60201c565b50600180819055505f73ffffffffffffffffffffffffffffffffffffffff168573ffffffffffffffffffffffffffffffffffffffff161415801561012157505f73ffffffffffffffffffffffffffffffffffffffff168473ffffffffffffffffffffffffffffffffffffffff1614155b801561015957505f73ffffffffffffffffffffffffffffffffffffffff168373ffffffffffffffffffffffffffffffffffffffff1614155b801561019157505f73ffffffffffffffffffffffffffffffffffffffff168273ffffffffffffffffffffffffffffffffffffffff1614155b6101d0576040517f08c379a00000000000000000000000000000000000000000000000000000000081526004016101c790610558565b60405180910390fd5b8473ffffffffffffffffffffffffffffffffffffffff1660808173ffffffffffffffffffffffffffffffffffffffff16815250508360025f6101000a81548173ffffffffffffffffffffffffffffffffffffffff021916908373ffffffffffffffffffffffffffffffffffffffff1602179055508260035f6101000a81548173ffffffffffffffffffffffffffffffffffffffff021916908373ffffffffffffffffffffffffffffffffffffffff1602179055508160045f6101000a81548173ffffffffffffffffffffffffffffffffffffffff021916908373ffffffffffffffffffffffffffffffffffffffff160217905550670de0b6b3a76400006005819055504260065f6101000a81548167ffffffffffffffff021916908367ffffffffffffffff1602179055505050505050610576565b5f5f5f9054906101000a900473ffffffffffffffffffffffffffffffffffffffff169050815f5f6101000a81548173ffffffffffffffffffffffffffffffffffffffff021916908373ffffffffffffffffffffffffffffffffffffffff1602179055508173ffffffffffffffffffffffffffffffffffffffff168173ffffffffffffffffffffffffffffffffffffffff167f8be0079c531659141344cd1fd0a4f28419497f9722a3daafe3b4186f6b6457e060405160405180910390a35050565b5f5ffd5b5f73ffffffffffffffffffffffffffffffffffffffff82169050919050565b5f6103f3826103ca565b9050919050565b5f610404826103e9565b9050919050565b610414816103fa565b811461041e575f5ffd5b50565b5f8151905061042f8161040b565b92915050565b61043e816103e9565b8114610448575f5ffd5b50565b5f8151905061045981610435565b92915050565b5f5f5f5f5f60a08688031215610478576104776103c6565b5b5f61048588828901610421565b95505060206104968882890161044b565b94505060406104a78882890161044b565b93505060606104b88882890161044b565b92505060806104c98882890161044b565b9150509295509295909350565b6104df816103e9565b82525050565b5f6020820190506104f85f8301846104d6565b92915050565b5f82825260208201905092915050565b7f7a65726f000000000000000000000000000000000000000000000000000000005f82015250565b5f6105426004836104fe565b915061054d8261050e565b602082019050919050565b5f6020820190508181035f83015261056f81610536565b9050919050565b6080516123366105aa5f395f81816105bd01528181610646015281816108fd01528181610e400152610f3601526123365ff3fe608060405234801561000f575f5ffd5b5060043610610171575f3560e01c80637c3a00fd116100dc578063acb7081511610095578063f8ba4cff1161006f578063f8ba4cff14610403578063fd2d39c51461040d578063fd6256211461043d578063ff4b79d31461045957610171565b8063acb708151461039b578063d4bb0c73146103cb578063f2fde38b146103e757610171565b80637c3a00fd146102e9578063813d2b2a1461030757806389103cde146103235780638da5cb5b14610343578063961be39114610361578063a2a1abbf1461037f57610171565b80634b3fd1481161012e5780634b3fd148146102395780635707ed471461026957806364580a3714610285578063715018a6146102a357806373884aee146102ad5780637b3baab4146102cb57610171565b8063087a600714610175578063228a34851461019357806328e8fe7d146101c35780632a0244e9146101e157806338d52e0f146101fd57806347bd37181461021b575b5f5ffd5b61017d610477565b60405161018a9190611a7c565b60405180910390f35b6101ad60048036038101906101a89190611af3565b610480565b6040516101ba9190611a7c565b60405180910390f35b6101cb610495565b6040516101d89190611b79565b60405180910390f35b6101fb60048036038101906101f69190611bbc565b6104ba565b005b610205610644565b6040516102129190611c07565b60405180910390f35b610223610668565b6040516102309190611a7c565b60405180910390f35b610253600480360381019061024e9190611c20565b610685565b6040516102609190611a7c565b60405180910390f35b610283600480360381019061027e9190611c5e565b6109bb565b005b61028d610b21565b60405161029a9190611a7c565b60405180910390f35b6102ab610b27565b005b6102b5610b3a565b6040516102c29190611cab565b60405180910390f35b6102d3610b5f565b6040516102e09190611ce6565b60405180910390f35b6102f1610b78565b6040516102fe9190611a7c565b60405180910390f35b610321600480360381019061031c9190611af3565b610c72565b005b61032b610d2b565b60405161033a93929190611cff565b60405180910390f35b61034b610d69565b6040516103589190611cab565b60405180910390f35b610369610d90565b6040516103769190611a7c565b60405180910390f35b61039960048036038101906103949190611bbc565b610d99565b005b6103b560048036038101906103b09190611c20565b610ee0565b6040516103c29190611a7c565b60405180910390f35b6103e560048036038101906103e09190611af3565b6110da565b005b61040160048036038101906103fc9190611af3565b611193565b005b61040b611217565b005b61042760048036038101906104229190611af3565b611221565b6040516104349190611a7c565b60405180910390f35b61045760048036038101906104529190611af3565b611232565b005b6104616112eb565b60405161046e9190611d54565b60405180910390f35b5f600554905090565b6009602052805f5260405f205f915090505481565b60035f9054906101000a900473ffffffffffffffffffffffffffffffffffffffff1681565b60025f9054906101000a900473ffffffffffffffffffffffffffffffffffffffff1673ffffffffffffffffffffffffffffffffffffffff163373ffffffffffffffffffffffffffffffffffffffff1614610549576040517f08c379a000000000000000000000000000000000000000000000000000000000815260040161054090611dc7565b60405180910390fd5b610551611310565b5f8103156106395780600754101561059e576040517f08c379a000000000000000000000000000000000000000000000000000000000815260040161059590611e2f565b60405180910390fd5b8060075f8282546105af9190611e7a565b9250508190555061060133827f000000000000000000000000000000000000000000000000000000000000000073ffffffffffffffffffffffffffffffffffffffff166113569092919063ffffffff16565b7f8f1ba5e427c69f5858e0bdc625cdf2b5cb478e0a02d2cd46dc8dfdb88aa13799816040516106309190611a7c565b60405180910390a15b6106416113d5565b50565b7f000000000000000000000000000000000000000000000000000000000000000081565b5f610680600854600554670de0b6b3a76400006113de565b905090565b5f61068e611310565b5f83116106d0576040517f08c379a00000000000000000000000000000000000000000000000000000000081526004016106c790611ef7565b60405180910390fd5b6106d86114bd565b5f3390505f60045f9054906101000a900473ffffffffffffffffffffffffffffffffffffffff1673ffffffffffffffffffffffffffffffffffffffff16631f429f50836040518263ffffffff1660e01b81526004016107379190611cab565b602060405180830381865afa158015610752573d5f5f3e3d5ffd5b505050506040513d601f19601f820116820180604052508101906107769190611f29565b90505f81116107ba576040517f08c379a00000000000000000000000000000000000000000000000000000000081526004016107b190611f9e565b60405180910390fd5b5f6107c4836116bc565b90508186826107d39190611fbc565b1115610814576040517f08c379a000000000000000000000000000000000000000000000000000000000815260040161080b90612039565b60405180910390fd5b856007541015610859576040517f08c379a0000000000000000000000000000000000000000000000000000000008152600401610850906120a1565b60405180910390fd5b5f61087187670de0b6b3a7640000600554600161172c565b90508060095f8673ffffffffffffffffffffffffffffffffffffffff1673ffffffffffffffffffffffffffffffffffffffff1681526020019081526020015f205f8282546108bf9190611fbc565b925050819055508060085f8282546108d79190611fbc565b925050819055508660075f8282546108ef9190611e7a565b9250508190555061094186887f000000000000000000000000000000000000000000000000000000000000000073ffffffffffffffffffffffffffffffffffffffff166113569092919063ffffffff16565b8573ffffffffffffffffffffffffffffffffffffffff168473ffffffffffffffffffffffffffffffffffffffff167f3fc499aeb0bb1cb58b6de8b02b3f86f4e7394e9690bef0110e32ced8a56310458960405161099e9190611a7c565b60405180910390a3869450505050506109b56113d5565b92915050565b6109c3611779565b5f810315610b1d576109d36114bd565b5f6109dd836116bc565b90505f81036109ec5750610b1d565b5f8183116109fa57826109fc565b815b90505f610a1682670de0b6b3a7640000600554600161172c565b90505f60095f8773ffffffffffffffffffffffffffffffffffffffff1673ffffffffffffffffffffffffffffffffffffffff1681526020019081526020015f2054905080821115610a65578091505b8181610a719190611e7a565b60095f8873ffffffffffffffffffffffffffffffffffffffff1673ffffffffffffffffffffffffffffffffffffffff1681526020019081526020015f20819055508160085f828254610ac39190611e7a565b925050819055508573ffffffffffffffffffffffffffffffffffffffff167f488411695753df528e728a38ea4694be98d00cce5cddc65e193ab0c22e69378884604051610b109190611a7c565b60405180910390a2505050505b5050565b60085481565b610b2f611779565b610b385f611800565b565b60025f9054906101000a900473ffffffffffffffffffffffffffffffffffffffff1681565b60065f9054906101000a900467ffffffffffffffff1681565b5f5f610b82610668565b90505f81600754610b939190611fbc565b90505f5f8214610bb557610bb083670de0b6b3a7640000846113de565b610bb7565b5f5b90505f60035f9054906101000a900473ffffffffffffffffffffffffffffffffffffffff1673ffffffffffffffffffffffffffffffffffffffff16632e34c87230845f6040518463ffffffff1660e01b8152600401610c18939291906120f8565b602060405180830381865afa158015610c33573d5f5f3e3d5ffd5b505050506040513d601f19601f82011682018060405250810190610c579190611f29565b9050633b9aca0081610c69919061215a565b94505050505090565b610c7a611779565b5f73ffffffffffffffffffffffffffffffffffffffff168173ffffffffffffffffffffffffffffffffffffffff1603610ce8576040517f08c379a0000000000000000000000000000000000000000000000000000000008152600401610cdf90611ef7565b60405180910390fd5b8060045f6101000a81548173ffffffffffffffffffffffffffffffffffffffff021916908373ffffffffffffffffffffffffffffffffffffffff16021790555050565b5f5f5f5f610d46600854600554670de0b6b3a76400006113de565b90505f60075490508181610d5a9190611fbc565b82829450945094505050909192565b5f5f5f9054906101000a900473ffffffffffffffffffffffffffffffffffffffff16905090565b5f600754905090565b60025f9054906101000a900473ffffffffffffffffffffffffffffffffffffffff1673ffffffffffffffffffffffffffffffffffffffff163373ffffffffffffffffffffffffffffffffffffffff1614610e28576040517f08c379a0000000000000000000000000000000000000000000000000000000008152600401610e1f90611dc7565b60405180910390fd5b610e30611310565b5f810315610ed557610e853330837f000000000000000000000000000000000000000000000000000000000000000073ffffffffffffffffffffffffffffffffffffffff166118c1909392919063ffffffff16565b8060075f828254610e969190611fbc565b925050819055507f71e6ad51d4e427017b97bfdfa3db0ef0317e1390e7fc6526cada8f353f04d7c281604051610ecc9190611a7c565b60405180910390a15b610edd6113d5565b50565b5f610ee9611310565b5f8303610ef8575f90506110cc565b610f006114bd565b5f610f0a836116bc565b90505f8103610f1c575f9150506110cc565b5f818511610f2a5784610f2c565b815b9050610f7b3330837f000000000000000000000000000000000000000000000000000000000000000073ffffffffffffffffffffffffffffffffffffffff166118c1909392919063ffffffff16565b5f610f9382670de0b6b3a7640000600554600161172c565b90505f60095f8773ffffffffffffffffffffffffffffffffffffffff1673ffffffffffffffffffffffffffffffffffffffff1681526020019081526020015f2054905080821115610fe2578091505b8181610fee9190611e7a565b60095f8873ffffffffffffffffffffffffffffffffffffffff1673ffffffffffffffffffffffffffffffffffffffff1681526020019081526020015f20819055508160085f8282546110409190611e7a565b925050819055508260075f8282546110589190611fbc565b925050819055508573ffffffffffffffffffffffffffffffffffffffff163373ffffffffffffffffffffffffffffffffffffffff167f0a3fbbea70e93f2daafa3102f5c9a1b8315e6d7a1e43e4bc020bc1162327470a856040516110bc9190611a7c565b60405180910390a3829450505050505b6110d46113d5565b92915050565b6110e2611779565b5f73ffffffffffffffffffffffffffffffffffffffff168173ffffffffffffffffffffffffffffffffffffffff1603611150576040517f08c379a000000000000000000000000000000000000000000000000000000000815260040161114790611ef7565b60405180910390fd5b8060035f6101000a81548173ffffffffffffffffffffffffffffffffffffffff021916908373ffffffffffffffffffffffffffffffffffffffff16021790555050565b61119b611779565b5f73ffffffffffffffffffffffffffffffffffffffff168173ffffffffffffffffffffffffffffffffffffffff160361120b575f6040517f1e4fbdf70000000000000000000000000000000000000000000000000000000081526004016112029190611cab565b60405180910390fd5b61121481611800565b50565b61121f6114bd565b565b5f61122b826116bc565b9050919050565b61123a611779565b5f73ffffffffffffffffffffffffffffffffffffffff168173ffffffffffffffffffffffffffffffffffffffff16036112a8576040517f08c379a000000000000000000000000000000000000000000000000000000000815260040161129f90611ef7565b60405180910390fd5b8060025f6101000a81548173ffffffffffffffffffffffffffffffffffffffff021916908373ffffffffffffffffffffffffffffffffffffffff16021790555050565b60045f9054906101000a900473ffffffffffffffffffffffffffffffffffffffff1681565b60026001540361134c576040517f3ee5aeb500000000000000000000000000000000000000000000000000000000815260040160405180910390fd5b6002600181905550565b6113d0838473ffffffffffffffffffffffffffffffffffffffff1663a9059cbb858560405160240161138992919061218a565b604051602081830303815290604052915060e01b6020820180517bffffffffffffffffffffffffffffffffffffffffffffffffffffffff8381831617835250505050611943565b505050565b60018081905550565b5f5f5f6113eb86866119de565b915091505f8203611410578381816114065761140561212d565b5b04925050506114b6565b81841161142f5761142e6114295f8614601260116119fb565b611a14565b5b5f8486880990508181118303925080820391505f855f038616905080860495508083049250600181825f0304019050808402831792505f600287600302189050808702600203810290508087026002038102905080870260020381029050808702600203810290508087026002038102905080870260020381029050808402955050505050505b9392505050565b5f4290505f60065f9054906101000a900467ffffffffffffffff16826114e391906121b1565b90505f8167ffffffffffffffff16036114fd5750506116ba565b5f611506610668565b90505f816007546115179190611fbc565b90505f5f82146115395761153483670de0b6b3a7640000846113de565b61153b565b5f5b90505f60035f9054906101000a900473ffffffffffffffffffffffffffffffffffffffff1673ffffffffffffffffffffffffffffffffffffffff16632e34c87230845f6040518463ffffffff1660e01b815260040161159c939291906120f8565b602060405180830381865afa1580156115b7573d5f5f3e3d5ffd5b505050506040513d601f19601f820116820180604052508101906115db9190611f29565b90505f633b9aca00826115ee919061215a565b90505f8667ffffffffffffffff168261160791906121ec565b670de0b6b3a764000061161a9190611fbc565b905061163160055482670de0b6b3a76400006113de565b6005819055508760065f6101000a81548167ffffffffffffffff021916908367ffffffffffffffff1602179055507f78fd9802117db7aabe68ce0896deac8d39b65f95fe68ee1fab60c2d407f23b3a60055460065f9054906101000a900467ffffffffffffffff16846040516116a99392919061222d565b60405180910390a150505050505050505b565b5f5f60095f8473ffffffffffffffffffffffffffffffffffffffff1673ffffffffffffffffffffffffffffffffffffffff1681526020019081526020015f205490505f810361170e575f915050611727565b61172381600554670de0b6b3a76400006113de565b9150505b919050565b5f61175a61173983611a25565b801561175557505f84806117505761174f61212d565b5b868809115b611a52565b6117658686866113de565b61176f9190611fbc565b9050949350505050565b611781611a5d565b73ffffffffffffffffffffffffffffffffffffffff1661179f610d69565b73ffffffffffffffffffffffffffffffffffffffff16146117fe576117c2611a5d565b6040517f118cdaa70000000000000000000000000000000000000000000000000000000081526004016117f59190611cab565b60405180910390fd5b565b5f5f5f9054906101000a900473ffffffffffffffffffffffffffffffffffffffff169050815f5f6101000a81548173ffffffffffffffffffffffffffffffffffffffff021916908373ffffffffffffffffffffffffffffffffffffffff1602179055508173ffffffffffffffffffffffffffffffffffffffff168173ffffffffffffffffffffffffffffffffffffffff167f8be0079c531659141344cd1fd0a4f28419497f9722a3daafe3b4186f6b6457e060405160405180910390a35050565b61193d848573ffffffffffffffffffffffffffffffffffffffff166323b872dd8686866040516024016118f693929190612262565b604051602081830303815290604052915060e01b6020820180517bffffffffffffffffffffffffffffffffffffffffffffffffffffffff8381831617835250505050611943565b50505050565b5f5f60205f8451602086015f885af180611962576040513d5f823e3d81fd5b3d92505f519150505f821461197b576001811415611996565b5f8473ffffffffffffffffffffffffffffffffffffffff163b145b156119d857836040517f5274afe70000000000000000000000000000000000000000000000000000000081526004016119cf9190611cab565b60405180910390fd5b50505050565b5f5f5f198385098385029150818110828203039250509250929050565b5f611a0584611a52565b82841802821890509392505050565b634e487b715f52806020526024601cfd5b5f60016002836003811115611a3d57611a3c612297565b5b611a4791906122d0565b60ff16149050919050565b5f8115159050919050565b5f33905090565b5f819050919050565b611a7681611a64565b82525050565b5f602082019050611a8f5f830184611a6d565b92915050565b5f5ffd5b5f73ffffffffffffffffffffffffffffffffffffffff82169050919050565b5f611ac282611a99565b9050919050565b611ad281611ab8565b8114611adc575f5ffd5b50565b5f81359050611aed81611ac9565b92915050565b5f60208284031215611b0857611b07611a95565b5b5f611b1584828501611adf565b91505092915050565b5f819050919050565b5f611b41611b3c611b3784611a99565b611b1e565b611a99565b9050919050565b5f611b5282611b27565b9050919050565b5f611b6382611b48565b9050919050565b611b7381611b59565b82525050565b5f602082019050611b8c5f830184611b6a565b92915050565b611b9b81611a64565b8114611ba5575f5ffd5b50565b5f81359050611bb681611b92565b92915050565b5f60208284031215611bd157611bd0611a95565b5b5f611bde84828501611ba8565b91505092915050565b5f611bf182611b48565b9050919050565b611c0181611be7565b82525050565b5f602082019050611c1a5f830184611bf8565b92915050565b5f5f60408385031215611c3657611c35611a95565b5b5f611c4385828601611ba8565b9250506020611c5485828601611adf565b9150509250929050565b5f5f60408385031215611c7457611c73611a95565b5b5f611c8185828601611adf565b9250506020611c9285828601611ba8565b9150509250929050565b611ca581611ab8565b82525050565b5f602082019050611cbe5f830184611c9c565b92915050565b5f67ffffffffffffffff82169050919050565b611ce081611cc4565b82525050565b5f602082019050611cf95f830184611cd7565b92915050565b5f606082019050611d125f830186611a6d565b611d1f6020830185611a6d565b611d2c6040830184611a6d565b949350505050565b5f611d3e82611b48565b9050919050565b611d4e81611d34565b82525050565b5f602082019050611d675f830184611d45565b92915050565b5f82825260208201905092915050565b7f6e6f742073656e696f72000000000000000000000000000000000000000000005f82015250565b5f611db1600a83611d6d565b9150611dbc82611d7d565b602082019050919050565b5f6020820190508181035f830152611dde81611da5565b9050919050565b7f696e73756666696369656e7420636173680000000000000000000000000000005f82015250565b5f611e19601183611d6d565b9150611e2482611de5565b602082019050919050565b5f6020820190508181035f830152611e4681611e0d565b9050919050565b7f4e487b71000000000000000000000000000000000000000000000000000000005f52601160045260245ffd5b5f611e8482611a64565b9150611e8f83611a64565b9250828203905081811115611ea757611ea6611e4d565b5b92915050565b7f7a65726f000000000000000000000000000000000000000000000000000000005f82015250565b5f611ee1600483611d6d565b9150611eec82611ead565b602082019050919050565b5f6020820190508181035f830152611f0e81611ed5565b9050919050565b5f81519050611f2381611b92565b92915050565b5f60208284031215611f3e57611f3d611a95565b5b5f611f4b84828501611f15565b91505092915050565b7f6e6f7420616c6c6f7765640000000000000000000000000000000000000000005f82015250565b5f611f88600b83611d6d565b9150611f9382611f54565b602082019050919050565b5f6020820190508181035f830152611fb581611f7c565b9050919050565b5f611fc682611a64565b9150611fd183611a64565b9250828201905080821115611fe957611fe8611e4d565b5b92915050565b7f6c696d69740000000000000000000000000000000000000000000000000000005f82015250565b5f612023600583611d6d565b915061202e82611fef565b602082019050919050565b5f6020820190508181035f83015261205081612017565b9050919050565b7f6e6f206c697175696469747900000000000000000000000000000000000000005f82015250565b5f61208b600c83611d6d565b915061209682612057565b602082019050919050565b5f6020820190508181035f8301526120b88161207f565b9050919050565b5f819050919050565b5f6120e26120dd6120d8846120bf565b611b1e565b611a64565b9050919050565b6120f2816120c8565b82525050565b5f60608201905061210b5f830186611c9c565b6121186020830185611a6d565b61212560408301846120e9565b949350505050565b7f4e487b71000000000000000000000000000000000000000000000000000000005f52601260045260245ffd5b5f61216482611a64565b915061216f83611a64565b92508261217f5761217e61212d565b5b828204905092915050565b5f60408201905061219d5f830185611c9c565b6121aa6020830184611a6d565b9392505050565b5f6121bb82611cc4565b91506121c683611cc4565b9250828203905067ffffffffffffffff8111156121e6576121e5611e4d565b5b92915050565b5f6121f682611a64565b915061220183611a64565b925082820261220f81611a64565b9150828204841483151761222657612225611e4d565b5b5092915050565b5f6060820190506122405f830186611a6d565b61224d6020830185611cd7565b61225a6040830184611a6d565b949350505050565b5f6060820190506122755f830186611c9c565b6122826020830185611c9c565b61228f6040830184611a6d565b949350505050565b7f4e487b71000000000000000000000000000000000000000000000000000000005f52602160045260245ffd5b5f60ff82169050919050565b5f6122da826122c4565b91506122e5836122c4565b9250826122f5576122f461212d565b5b82820690509291505056fea264697066735822122001b119fab71cc277eef75d19fc19bf38b373a2de59116b2c475a54b12f7144b464736f6c634300081e0033","linkReferences":{}},"methodIdentifiers":{"accrue()":"f8ba4cff","asset()":"38d52e0f","borrow(uint256,address)":"4b3fd148","cash()":"961be391","clm()":"ff4b79d3","expectedBalances()":"89103cde","interestAccumulator()":"087a6007","interestRate()":"7c3a00fd","irm()":"28e8fe7d","lastAccrual()":"7b3baab4","owner()":"8da5cb5b","positionOf(address)":"fd2d39c5","principalScaledOf(address)":"228a3485","renounceOwnership()":"715018a6","repay(uint256,address)":"acb70815","seniorVault()":"73884aee","setCreditLineManager(address)":"813d2b2a","setIRM(address)":"d4bb0c73","setSeniorVault(address)":"fd625621","supplyFromSenior(uint256)":"a2a1abbf","totalBorrows()":"47bd3718","totalPrincipalScaled()":"64580a37","transferOwnership(address)":"f2fde38b","withdrawToSenior(uint256)":"2a0244e9","writeDown(address,uint256)":"5707ed47"},"id":42}