{"abi":[{"type":"constructor","inputs":[{"name":"initialClm","type":"address","internalType":"address"},{"name":"_governor","type":"address","internalType":"address"}],"stateMutability":"nonpayable"},{"type":"function","name":"clm","inputs":[],"outputs":[{"name":"","type":"address","internalType":"address"}],"stateMutability":"view"},{"type":"function","name":"creditLimitManager","inputs":[],"outputs":[{"name":"","type":"address","internalType":"address"}],"stateMutability":"view"},{"type":"function","name":"governor","inputs":[],"outputs":[{"name":"","type":"address","internalType":"address"}],"stateMutability":"view"},{"type":"function","name":"setCreditLimitManager","inputs":[{"name":"newClm","type":"address","internalType":"address"}],"outputs":[],"stateMutability":"nonpayable"},{"type":"event","name":"CreditLimitManagerUpdated","inputs":[{"name":"oldCLM","type":"address","indexed":true,"internalType":"address"},{"name":"newCLM","type":"address","indexed":true,"internalType":"address"}],"anonymous":false}],"bytecode":{"object":"0x60a060405234801561000f575f5ffd5b5060405161070538038061070583398181016040528101906100319190610177565b5f73ffffffffffffffffffffffffffffffffffffffff168273ffffffffffffffffffffffffffffffffffffffff160361009f576040517f08c379a00000000000000000000000000000000000000000000000000000000081526004016100969061020f565b60405180910390fd5b815f5f6101000a81548173ffffffffffffffffffffffffffffffffffffffff021916908373ffffffffffffffffffffffffffffffffffffffff1602179055508073ffffffffffffffffffffffffffffffffffffffff1660808173ffffffffffffffffffffffffffffffffffffffff1681525050505061022d565b5f5ffd5b5f73ffffffffffffffffffffffffffffffffffffffff82169050919050565b5f6101468261011d565b9050919050565b6101568161013c565b8114610160575f5ffd5b50565b5f815190506101718161014d565b92915050565b5f5f6040838503121561018d5761018c610119565b5b5f61019a85828601610163565b92505060206101ab85828601610163565b9150509250929050565b5f82825260208201905092915050565b7f434c4d3d300000000000000000000000000000000000000000000000000000005f82015250565b5f6101f96005836101b5565b9150610204826101c5565b602082019050919050565b5f6020820190508181035f830152610226816101ed565b9050919050565b6080516104ba61024b5f395f818160c6015261011101526104ba5ff3fe608060405234801561000f575f5ffd5b506004361061004a575f3560e01c80630c340a241461004e578063178de7eb1461006c578063c2a544811461008a578063ff4b79d3146100a6575b5f5ffd5b6100566100c4565b6040516100639190610332565b60405180910390f35b6100746100e8565b6040516100819190610332565b60405180910390f35b6100a4600480360381019061009f9190610379565b61010f565b005b6100ae6102cc565b6040516100bb9190610332565b60405180910390f35b7f000000000000000000000000000000000000000000000000000000000000000081565b5f5f5f9054906101000a900473ffffffffffffffffffffffffffffffffffffffff16905090565b7f000000000000000000000000000000000000000000000000000000000000000073ffffffffffffffffffffffffffffffffffffffff163373ffffffffffffffffffffffffffffffffffffffff161461019d576040517f08c379a0000000000000000000000000000000000000000000000000000000008152600401610194906103fe565b60405180910390fd5b5f73ffffffffffffffffffffffffffffffffffffffff168173ffffffffffffffffffffffffffffffffffffffff160361020b576040517f08c379a000000000000000000000000000000000000000000000000000000000815260040161020290610466565b60405180910390fd5b5f5f5f9054906101000a900473ffffffffffffffffffffffffffffffffffffffff169050815f5f6101000a81548173ffffffffffffffffffffffffffffffffffffffff021916908373ffffffffffffffffffffffffffffffffffffffff1602179055508173ffffffffffffffffffffffffffffffffffffffff168173ffffffffffffffffffffffffffffffffffffffff167f7de900acfc7036fdc146180d1de9c03964724f35f7551f669228cb566f0e30a560405160405180910390a35050565b5f5f5f9054906101000a900473ffffffffffffffffffffffffffffffffffffffff16905090565b5f73ffffffffffffffffffffffffffffffffffffffff82169050919050565b5f61031c826102f3565b9050919050565b61032c81610312565b82525050565b5f6020820190506103455f830184610323565b92915050565b5f5ffd5b61035881610312565b8114610362575f5ffd5b50565b5f813590506103738161034f565b92915050565b5f6020828403121561038e5761038d61034b565b5b5f61039b84828501610365565b91505092915050565b5f82825260208201905092915050565b7f6e6f7420676f76000000000000000000000000000000000000000000000000005f82015250565b5f6103e86007836103a4565b91506103f3826103b4565b602082019050919050565b5f6020820190508181035f830152610415816103dc565b9050919050565b7f434c4d3d300000000000000000000000000000000000000000000000000000005f82015250565b5f6104506005836103a4565b915061045b8261041c565b602082019050919050565b5f6020820190508181035f83015261047d81610444565b905091905056fea2646970667358221220575602b8b14273b9cd5aaf2112a295967d13eeb7267436241cac61efb02fb15264736f6c634300081e0033","linkReferences":{}},"methodIdentifiers":{"clm()":"ff4b79d3","creditLimitManager()":"178de7eb","governor()":"0c340a24","setCreditLimitManager(address)":"c2a54481"},"id":35}