{"abi":[{"type":"constructor","inputs":[{"name":"usdc_","type":"address","internalType":"contract IERC20"},{"name":"owner_","type":"address","internalType":"address"}],"stateMutability":"nonpayable"},{"type":"function","name":"allowance","inputs":[{"name":"owner","type":"address","internalType":"address"},{"name":"spender","type":"address","internalType":"address"}],"outputs":[{"name":"","type":"uint256","internalType":"uint256"}],"stateMutability":"view"},{"type":"function","name":"approve","inputs":[{"name":"spender","type":"address","internalType":"address"},{"name":"value","type":"uint256","internalType":"uint256"}],"outputs":[{"name":"","type":"bool","internalType":"bool"}],"stateMutability":"nonpayable"},{"type":"function","name":"asset","inputs":[],"outputs":[{"name":"","type":"address","internalType":"address"}],"stateMutability":"view"},{"type":"function","name":"balanceOf","inputs":[{"name":"account","type":"address","internalType":"address"}],"outputs":[{"name":"","type":"uint256","internalType":"uint256"}],"stateMutability":"view"},{"type":"function","name":"convertToAssets","inputs":[{"name":"shares","type":"uint256","internalType":"uint256"}],"outputs":[{"name":"","type":"uint256","internalType":"uint256"}],"stateMutability":"view"},{"type":"function","name":"convertToShares","inputs":[{"name":"assets","type":"uint256","internalType":"uint256"}],"outputs":[{"name":"","type":"uint256","internalType":"uint256"}],"stateMutability":"view"},{"type":"function","name":"decimals","inputs":[],"outputs":[{"name":"","type":"uint8","internalType":"uint8"}],"stateMutability":"view"},{"type":"function","name":"deposit","inputs":[{"name":"assets","type":"uint256","internalType":"uint256"},{"name":"receiver","type":"address","internalType":"address"}],"outputs":[{"name":"","type":"uint256","internalType":"uint256"}],"stateMutability":"nonpayable"},{"type":"function","name":"harvest","inputs":[],"outputs":[],"stateMutability":"nonpayable"},{"type":"function","name":"market","inputs":[],"outputs":[{"name":"","type":"address","internalType":"contract ILendMarket"}],"stateMutability":"view"},{"type":"function","name":"maxDeposit","inputs":[{"name":"","type":"address","internalType":"address"}],"outputs":[{"name":"","type":"uint256","internalType":"uint256"}],"stateMutability":"view"},{"type":"function","name":"maxMint","inputs":[{"name":"","type":"address","internalType":"address"}],"outputs":[{"name":"","type":"uint256","internalType":"uint256"}],"stateMutability":"view"},{"type":"function","name":"maxRedeem","inputs":[{"name":"owner","type":"address","internalType":"address"}],"outputs":[{"name":"","type":"uint256","internalType":"uint256"}],"stateMutability":"view"},{"type":"function","name":"maxWithdraw","inputs":[{"name":"owner","type":"address","internalType":"address"}],"outputs":[{"name":"","type":"uint256","internalType":"uint256"}],"stateMutability":"view"},{"type":"function","name":"mint","inputs":[{"name":"shares","type":"uint256","internalType":"uint256"},{"name":"receiver","type":"address","internalType":"address"}],"outputs":[{"name":"","type":"uint256","internalType":"uint256"}],"stateMutability":"nonpayable"},{"type":"function","name":"name","inputs":[],"outputs":[{"name":"","type":"string","internalType":"string"}],"stateMutability":"view"},{"type":"function","name":"owner","inputs":[],"outputs":[{"name":"","type":"address","internalType":"address"}],"stateMutability":"view"},{"type":"function","name":"previewDeposit","inputs":[{"name":"assets","type":"uint256","internalType":"uint256"}],"outputs":[{"name":"","type":"uint256","internalType":"uint256"}],"stateMutability":"view"},{"type":"function","name":"previewMint","inputs":[{"name":"shares","type":"uint256","internalType":"uint256"}],"outputs":[{"name":"","type":"uint256","internalType":"uint256"}],"stateMutability":"view"},{"type":"function","name":"previewRedeem","inputs":[{"name":"shares","type":"uint256","internalType":"uint256"}],"outputs":[{"name":"","type":"uint256","internalType":"uint256"}],"stateMutability":"view"},{"type":"function","name":"previewWithdraw","inputs":[{"name":"assets","type":"uint256","internalType":"uint256"}],"outputs":[{"name":"","type":"uint256","internalType":"uint256"}],"stateMutability":"view"},{"type":"function","name":"redeem","inputs":[{"name":"shares","type":"uint256","internalType":"uint256"},{"name":"receiver","type":"address","internalType":"address"},{"name":"owner","type":"address","internalType":"address"}],"outputs":[{"name":"","type":"uint256","internalType":"uint256"}],"stateMutability":"nonpayable"},{"type":"function","name":"renounceOwnership","inputs":[],"outputs":[],"stateMutability":"nonpayable"},{"type":"function","name":"setMarket","inputs":[{"name":"market_","type":"address","internalType":"address"}],"outputs":[],"stateMutability":"nonpayable"},{"type":"function","name":"symbol","inputs":[],"outputs":[{"name":"","type":"string","internalType":"string"}],"stateMutability":"view"},{"type":"function","name":"totalAssets","inputs":[],"outputs":[{"name":"","type":"uint256","internalType":"uint256"}],"stateMutability":"view"},{"type":"function","name":"totalSupply","inputs":[],"outputs":[{"name":"","type":"uint256","internalType":"uint256"}],"stateMutability":"view"},{"type":"function","name":"transfer","inputs":[{"name":"to","type":"address","internalType":"address"},{"name":"value","type":"uint256","internalType":"uint256"}],"outputs":[{"name":"","type":"bool","internalType":"bool"}],"stateMutability":"nonpayable"},{"type":"function","name":"transferFrom","inputs":[{"name":"from","type":"address","internalType":"address"},{"name":"to","type":"address","internalType":"address"},{"name":"value","type":"uint256","internalType":"uint256"}],"outputs":[{"name":"","type":"bool","internalType":"bool"}],"stateMutability":"nonpayable"},{"type":"function","name":"transferOwnership","inputs":[{"name":"newOwner","type":"address","internalType":"address"}],"outputs":[],"stateMutability":"nonpayable"},{"type":"function","name":"withdraw","inputs":[{"name":"assets","type":"uint256","internalType":"uint256"},{"name":"receiver","type":"address","internalType":"address"},{"name":"owner","type":"address","internalType":"address"}],"outputs":[{"name":"","type":"uint256","internalType":"uint256"}],"stateMutability":"nonpayable"},{"type":"event","name":"Approval","inputs":[{"name":"owner","type":"address","indexed":true,"internalType":"address"},{"name":"spender","type":"address","indexed":true,"internalType":"address"},{"name":"value","type":"uint256","indexed":false,"internalType":"uint256"}],"anonymous":false},{"type":"event","name":"Deposit","inputs":[{"name":"sender","type":"address","indexed":true,"internalType":"address"},{"name":"owner","type":"address","indexed":true,"internalType":"address"},{"name":"assets","type":"uint256","indexed":false,"internalType":"uint256"},{"name":"shares","type":"uint256","indexed":false,"internalType":"uint256"}],"anonymous":false},{"type":"event","name":"OwnershipTransferred","inputs":[{"name":"previousOwner","type":"address","indexed":true,"internalType":"address"},{"name":"newOwner","type":"address","indexed":true,"internalType":"address"}],"anonymous":false},{"type":"event","name":"Transfer","inputs":[{"name":"from","type":"address","indexed":true,"internalType":"address"},{"name":"to","type":"address","indexed":true,"internalType":"address"},{"name":"value","type":"uint256","indexed":false,"internalType":"uint256"}],"anonymous":false},{"type":"event","name":"Withdraw","inputs":[{"name":"sender","type":"address","indexed":true,"internalType":"address"},{"name":"receiver","type":"address","indexed":true,"internalType":"address"},{"name":"owner","type":"address","indexed":true,"internalType":"address"},{"name":"assets","type":"uint256","indexed":false,"internalType":"uint256"},{"name":"shares","type":"uint256","indexed":false,"internalType":"uint256"}],"anonymous":false},{"type":"error","name":"ERC20InsufficientAllowance","inputs":[{"name":"spender","type":"address","internalType":"address"},{"name":"allowance","type":"uint256","internalType":"uint256"},{"name":"needed","type":"uint256","internalType":"uint256"}]},{"type":"error","name":"ERC20InsufficientBalance","inputs":[{"name":"sender","type":"address","internalType":"address"},{"name":"balance","type":"uint256","internalType":"uint256"},{"name":"needed","type":"uint256","internalType":"uint256"}]},{"type":"error","name":"ERC20InvalidApprover","inputs":[{"name":"approver","type":"address","internalType":"address"}]},{"type":"error","name":"ERC20InvalidReceiver","inputs":[{"name":"receiver","type":"address","internalType":"address"}]},{"type":"error","name":"ERC20InvalidSender","inputs":[{"name":"sender","type":"address","internalType":"address"}]},{"type":"error","name":"ERC20InvalidSpender","inputs":[{"name":"spender","type":"address","internalType":"address"}]},{"type":"error","name":"ERC4626ExceededMaxDeposit","inputs":[{"name":"receiver","type":"address","internalType":"address"},{"name":"assets","type":"uint256","internalType":"uint256"},{"name":"max","type":"uint256","internalType":"uint256"}]},{"type":"error","name":"ERC4626ExceededMaxMint","inputs":[{"name":"receiver","type":"address","internalType":"address"},{"name":"shares","type":"uint256","internalType":"uint256"},{"name":"max","type":"uint256","internalType":"uint256"}]},{"type":"error","name":"ERC4626ExceededMaxRedeem","inputs":[{"name":"owner","type":"address","internalType":"address"},{"name":"shares","type":"uint256","internalType":"uint256"},{"name":"max","type":"uint256","internalType":"uint256"}]},{"type":"error","name":"ERC4626ExceededMaxWithdraw","inputs":[{"name":"owner","type":"address","internalType":"address"},{"name":"assets","type":"uint256","internalType":"uint256"},{"name":"max","type":"uint256","internalType":"uint256"}]},{"type":"error","name":"OwnableInvalidOwner","inputs":[{"name":"owner","type":"address","internalType":"address"}]},{"type":"error","name":"OwnableUnauthorizedAccount","inputs":[{"name":"account","type":"address","internalType":"address"}]},{"type":"error","name":"SafeERC20FailedOperation","inputs":[{"name":"token","type":"address","internalType":"address"}]}],"bytecode":{"object":"0x60c060405234801561000f575f5ffd5b5060405161312a38038061312a83398181016040528101906100319190610414565b80826040518060400160405280601181526020017f53656e696f722055534443205661756c740000000000000000000000000000008152506040518060400160405280600581526020017f735553444300000000000000000000000000000000000000000000000000000081525081600390816100ae919061068f565b5080600490816100be919061068f565b5050505f5f6100d2836101af60201b60201c565b91509150816100e25760126100e4565b805b60ff1660a08160ff16815250508273ffffffffffffffffffffffffffffffffffffffff1660808173ffffffffffffffffffffffffffffffffffffffff16815250505050505f73ffffffffffffffffffffffffffffffffffffffff168173ffffffffffffffffffffffffffffffffffffffff1603610198575f6040517f1e4fbdf700000000000000000000000000000000000000000000000000000000815260040161018f919061076d565b60405180910390fd5b6101a7816102b860201b60201c565b505050610843565b5f5f5f5f8473ffffffffffffffffffffffffffffffffffffffff1660405160240160405160208183030381529060405263313ce56760e01b6020820180517bffffffffffffffffffffffffffffffffffffffffffffffffffffffff838183161783525050505060405161022291906107d8565b5f60405180830381855afa9150503d805f811461025a576040519150601f19603f3d011682016040523d82523d5f602084013e61025f565b606091505b509150915081801561027357506020815110155b156102aa575f8180602001905181019061028d9190610818565b905060ff801681116102a857600181945094505050506102b3565b505b5f5f9350935050505b915091565b5f60055f9054906101000a900473ffffffffffffffffffffffffffffffffffffffff1690508160055f6101000a81548173ffffffffffffffffffffffffffffffffffffffff021916908373ffffffffffffffffffffffffffffffffffffffff1602179055508173ffffffffffffffffffffffffffffffffffffffff168173ffffffffffffffffffffffffffffffffffffffff167f8be0079c531659141344cd1fd0a4f28419497f9722a3daafe3b4186f6b6457e060405160405180910390a35050565b5f5ffd5b5f73ffffffffffffffffffffffffffffffffffffffff82169050919050565b5f6103a88261037f565b9050919050565b5f6103b98261039e565b9050919050565b6103c9816103af565b81146103d3575f5ffd5b50565b5f815190506103e4816103c0565b92915050565b6103f38161039e565b81146103fd575f5ffd5b50565b5f8151905061040e816103ea565b92915050565b5f5f6040838503121561042a5761042961037b565b5b5f610437858286016103d6565b925050602061044885828601610400565b9150509250929050565b5f81519050919050565b7f4e487b71000000000000000000000000000000000000000000000000000000005f52604160045260245ffd5b7f4e487b71000000000000000000000000000000000000000000000000000000005f52602260045260245ffd5b5f60028204905060018216806104cd57607f821691505b6020821081036104e0576104df610489565b5b50919050565b5f819050815f5260205f209050919050565b5f6020601f8301049050919050565b5f82821b905092915050565b5f600883026105427fffffffffffffffffffffffffffffffffffffffffffffffffffffffffffffffff82610507565b61054c8683610507565b95508019841693508086168417925050509392505050565b5f819050919050565b5f819050919050565b5f61059061058b61058684610564565b61056d565b610564565b9050919050565b5f819050919050565b6105a983610576565b6105bd6105b582610597565b848454610513565b825550505050565b5f5f905090565b6105d46105c5565b6105df8184846105a0565b505050565b5b81811015610602576105f75f826105cc565b6001810190506105e5565b5050565b601f82111561064757610618816104e6565b610621846104f8565b81016020851015610630578190505b61064461063c856104f8565b8301826105e4565b50505b505050565b5f82821c905092915050565b5f6106675f198460080261064c565b1980831691505092915050565b5f61067f8383610658565b9150826002028217905092915050565b61069882610452565b67ffffffffffffffff8111156106b1576106b061045c565b5b6106bb82546104b6565b6106c6828285610606565b5f60209050601f8311600181146106f7575f84156106e5578287015190505b6106ef8582610674565b865550610756565b601f198416610705866104e6565b5f5b8281101561072c57848901518255600182019150602085019450602081019050610707565b868310156107495784890151610745601f891682610658565b8355505b6001600288020188555050505b505050505050565b6107678161039e565b82525050565b5f6020820190506107805f83018461075e565b92915050565b5f81519050919050565b5f81905092915050565b8281835e5f83830152505050565b5f6107b282610786565b6107bc8185610790565b93506107cc81856020860161079a565b80840191505092915050565b5f6107e382846107a8565b915081905092915050565b6107f781610564565b8114610801575f5ffd5b50565b5f81519050610812816107ee565b92915050565b5f6020828403121561082d5761082c61037b565b5b5f61083a84828501610804565b91505092915050565b60805160a0516128c66108645f395f6109cb01525f6109fc01526128c65ff3fe608060405234801561000f575f5ffd5b50600436106101e3575f3560e01c8063715018a61161010d578063ba087652116100a0578063d905777e1161006f578063d905777e14610607578063dd62ed3e14610637578063ef8b30f714610667578063f2fde38b14610697576101e3565b8063ba08765214610547578063c63d75b614610577578063c6e6f592146105a7578063ce96cb77146105d7576101e3565b806395d89b41116100dc57806395d89b4114610499578063a9059cbb146104b7578063b3d7f6b9146104e7578063b460af9414610517576101e3565b8063715018a61461042357806380f556051461042d5780638da5cb5b1461044b57806394bf804d14610469576101e3565b8063313ce567116101855780634cdad506116101545780634cdad506146103775780636dcea85f146103a75780636e553f65146103c357806370a08231146103f3576101e3565b8063313ce5671461030157806338d52e0f1461031f578063402d267d1461033d5780634641257d1461036d576101e3565b8063095ea7b3116101c1578063095ea7b3146102535780630a28a4771461028357806318160ddd146102b357806323b872dd146102d1576101e3565b806301e1d114146101e757806306fdde031461020557806307a2d13a14610223575b5f5ffd5b6101ef6106b3565b6040516101fc9190611fb4565b60405180910390f35b61020d6108b2565b60405161021a919061203d565b60405180910390f35b61023d6004803603810190610238919061208b565b610942565b60405161024a9190611fb4565b60405180910390f35b61026d60048036038101906102689190612110565b610954565b60405161027a9190612168565b60405180910390f35b61029d6004803603810190610298919061208b565b610976565b6040516102aa9190611fb4565b60405180910390f35b6102bb610989565b6040516102c89190611fb4565b60405180910390f35b6102eb60048036038101906102e69190612181565b610992565b6040516102f89190612168565b60405180910390f35b6103096109c0565b60405161031691906121ec565b60405180910390f35b6103276109f9565b6040516103349190612214565b60405180910390f35b6103576004803603810190610352919061222d565b610a20565b6040516103649190611fb4565b60405180910390f35b610375610a49565b005b610391600480360381019061038c919061208b565b610ac7565b60405161039e9190611fb4565b60405180910390f35b6103c160048036038101906103bc919061222d565b610ad9565b005b6103dd60048036038101906103d89190612258565b610b92565b6040516103ea9190611fb4565b60405180910390f35b61040d6004803603810190610408919061222d565b610c12565b60405161041a9190611fb4565b60405180910390f35b61042b610c57565b005b610435610c6a565b60405161044291906122f1565b60405180910390f35b610453610c8f565b6040516104609190612214565b60405180910390f35b610483600480360381019061047e9190612258565b610cb7565b6040516104909190611fb4565b60405180910390f35b6104a1610d37565b6040516104ae919061203d565b60405180910390f35b6104d160048036038101906104cc9190612110565b610dc7565b6040516104de9190612168565b60405180910390f35b61050160048036038101906104fc919061208b565b610de9565b60405161050e9190611fb4565b60405180910390f35b610531600480360381019061052c919061230a565b610dfc565b60405161053e9190611fb4565b60405180910390f35b610561600480360381019061055c919061230a565b610e7e565b60405161056e9190611fb4565b60405180910390f35b610591600480360381019061058c919061222d565b610f00565b60405161059e9190611fb4565b60405180910390f35b6105c160048036038101906105bc919061208b565b610f29565b6040516105ce9190611fb4565b60405180910390f35b6105f160048036038101906105ec919061222d565b610f3b565b6040516105fe9190611fb4565b60405180910390f35b610621600480360381019061061c919061222d565b610f55565b60405161062e9190611fb4565b60405180910390f35b610651600480360381019061064c919061235a565b610f66565b60405161065e9190611fb4565b60405180910390f35b610681600480360381019061067c919061208b565b610fe8565b60405161068e9190611fb4565b60405180910390f35b6106b160048036038101906106ac919061222d565b610ffa565b005b5f5f73ffffffffffffffffffffffffffffffffffffffff1660065f9054906101000a900473ffffffffffffffffffffffffffffffffffffffff1673ffffffffffffffffffffffffffffffffffffffff160361078e576107106109f9565b73ffffffffffffffffffffffffffffffffffffffff166370a08231306040518263ffffffff1660e01b81526004016107489190612214565b602060405180830381865afa158015610763573d5f5f3e3d5ffd5b505050506040513d601f19601f8201168201806040525081019061078791906123ac565b90506108af565b5f60065f9054906101000a900473ffffffffffffffffffffffffffffffffffffffff1673ffffffffffffffffffffffffffffffffffffffff166389103cde6040518163ffffffff1660e01b8152600401606060405180830381865afa1580156107f9573d5f5f3e3d5ffd5b505050506040513d601f19601f8201168201806040525081019061081d91906123d7565b505090506108296109f9565b73ffffffffffffffffffffffffffffffffffffffff166370a08231306040518263ffffffff1660e01b81526004016108619190612214565b602060405180830381865afa15801561087c573d5f5f3e3d5ffd5b505050506040513d601f19601f820116820180604052508101906108a091906123ac565b816108ab9190612454565b9150505b90565b6060600380546108c1906124b4565b80601f01602080910402602001604051908101604052809291908181526020018280546108ed906124b4565b80156109385780601f1061090f57610100808354040283529160200191610938565b820191905f5260205f20905b81548152906001019060200180831161091b57829003601f168201915b5050505050905090565b5f61094d825f61107e565b9050919050565b5f5f61095e6110d6565b905061096b8185856110dd565b600191505092915050565b5f6109828260016110ef565b9050919050565b5f600254905090565b5f5f61099c6110d6565b90506109a9858285611147565b6109b48585856111da565b60019150509392505050565b5f6109c96112ca565b7f00000000000000000000000000000000000000000000000000000000000000006109f491906124e4565b905090565b5f7f0000000000000000000000000000000000000000000000000000000000000000905090565b5f7fffffffffffffffffffffffffffffffffffffffffffffffffffffffffffffffff9050919050565b60065f9054906101000a900473ffffffffffffffffffffffffffffffffffffffff1673ffffffffffffffffffffffffffffffffffffffff1663f8ba4cff6040518163ffffffff1660e01b81526004015f604051808303815f87803b158015610aaf575f5ffd5b505af1158015610ac1573d5f5f3e3d5ffd5b50505050565b5f610ad2825f61107e565b9050919050565b610ae16112d1565b5f73ffffffffffffffffffffffffffffffffffffffff168173ffffffffffffffffffffffffffffffffffffffff1603610b4f576040517f08c379a0000000000000000000000000000000000000000000000000000000008152600401610b4690612562565b60405180910390fd5b8060065f6101000a81548173ffffffffffffffffffffffffffffffffffffffff021916908373ffffffffffffffffffffffffffffffffffffffff16021790555050565b5f5f610b9d83610a20565b905080841115610be8578284826040517f79012fb2000000000000000000000000000000000000000000000000000000008152600401610bdf93929190612580565b60405180910390fd5b5f610bf285610fe8565b9050610c07610bff6110d6565b858784611358565b809250505092915050565b5f5f5f8373ffffffffffffffffffffffffffffffffffffffff1673ffffffffffffffffffffffffffffffffffffffff1681526020019081526020015f20549050919050565b610c5f6112d1565b610c685f61149e565b565b60065f9054906101000a900473ffffffffffffffffffffffffffffffffffffffff1681565b5f60055f9054906101000a900473ffffffffffffffffffffffffffffffffffffffff16905090565b5f5f610cc283610f00565b905080841115610d0d578284826040517f284ff667000000000000000000000000000000000000000000000000000000008152600401610d0493929190612580565b60405180910390fd5b5f610d1785610de9565b9050610d2c610d246110d6565b858388611358565b809250505092915050565b606060048054610d46906124b4565b80601f0160208091040260200160405190810160405280929190818152602001828054610d72906124b4565b8015610dbd5780601f10610d9457610100808354040283529160200191610dbd565b820191905f5260205f20905b815481529060010190602001808311610da057829003601f168201915b5050505050905090565b5f5f610dd16110d6565b9050610dde8185856111da565b600191505092915050565b5f610df582600161107e565b9050919050565b5f5f610e0783610f3b565b905080851115610e52578285826040517ffe9cceec000000000000000000000000000000000000000000000000000000008152600401610e4993929190612580565b60405180910390fd5b5f610e5c86610976565b9050610e72610e696110d6565b86868985611561565b80925050509392505050565b5f5f610e8983610f55565b905080851115610ed4578285826040517fb94abeec000000000000000000000000000000000000000000000000000000008152600401610ecb93929190612580565b60405180910390fd5b5f610ede86610ac7565b9050610ef4610eeb6110d6565b8686848a611561565b80925050509392505050565b5f7fffffffffffffffffffffffffffffffffffffffffffffffffffffffffffffffff9050919050565b5f610f34825f6110ef565b9050919050565b5f610f4e610f4883610c12565b5f61107e565b9050919050565b5f610f5f82610c12565b9050919050565b5f60015f8473ffffffffffffffffffffffffffffffffffffffff1673ffffffffffffffffffffffffffffffffffffffff1681526020019081526020015f205f8373ffffffffffffffffffffffffffffffffffffffff1673ffffffffffffffffffffffffffffffffffffffff1681526020019081526020015f2054905092915050565b5f610ff3825f6110ef565b9050919050565b6110026112d1565b5f73ffffffffffffffffffffffffffffffffffffffff168173ffffffffffffffffffffffffffffffffffffffff1603611072575f6040517f1e4fbdf70000000000000000000000000000000000000000000000000000000081526004016110699190612214565b60405180910390fd5b61107b8161149e565b50565b5f6110ce600161108c6106b3565b6110969190612454565b61109e6112ca565b600a6110aa91906126e4565b6110b2610989565b6110bc9190612454565b8486611605909392919063ffffffff16565b905092915050565b5f33905090565b6110ea8383836001611652565b505050565b5f61113f6110fb6112ca565b600a61110791906126e4565b61110f610989565b6111199190612454565b60016111236106b3565b61112d9190612454565b8486611605909392919063ffffffff16565b905092915050565b5f6111528484610f66565b90507fffffffffffffffffffffffffffffffffffffffffffffffffffffffffffffffff8110156111d457818110156111c5578281836040517ffb8f41b20000000000000000000000000000000000000000000000000000000081526004016111bc93929190612580565b60405180910390fd5b6111d384848484035f611652565b5b50505050565b5f73ffffffffffffffffffffffffffffffffffffffff168373ffffffffffffffffffffffffffffffffffffffff160361124a575f6040517f96c6fd1e0000000000000000000000000000000000000000000000000000000081526004016112419190612214565b60405180910390fd5b5f73ffffffffffffffffffffffffffffffffffffffff168273ffffffffffffffffffffffffffffffffffffffff16036112ba575f6040517fec442f050000000000000000000000000000000000000000000000000000000081526004016112b19190612214565b60405180910390fd5b6112c5838383611821565b505050565b5f5f905090565b6112d96110d6565b73ffffffffffffffffffffffffffffffffffffffff166112f7610c8f565b73ffffffffffffffffffffffffffffffffffffffff16146113565761131a6110d6565b6040517f118cdaa700000000000000000000000000000000000000000000000000000000815260040161134d9190612214565b60405180910390fd5b565b61136484848484611a3a565b5f821115611498576113746109f9565b73ffffffffffffffffffffffffffffffffffffffff1663095ea7b360065f9054906101000a900473ffffffffffffffffffffffffffffffffffffffff16846040518363ffffffff1660e01b81526004016113cf92919061272e565b6020604051808303815f875af11580156113eb573d5f5f3e3d5ffd5b505050506040513d601f19601f8201168201806040525081019061140f919061277f565b5060065f9054906101000a900473ffffffffffffffffffffffffffffffffffffffff1673ffffffffffffffffffffffffffffffffffffffff1663a2a1abbf836040518263ffffffff1660e01b815260040161146a9190611fb4565b5f604051808303815f87803b158015611481575f5ffd5b505af1158015611493573d5f5f3e3d5ffd5b505050505b50505050565b5f60055f9054906101000a900473ffffffffffffffffffffffffffffffffffffffff1690508160055f6101000a81548173ffffffffffffffffffffffffffffffffffffffff021916908373ffffffffffffffffffffffffffffffffffffffff1602179055508173ffffffffffffffffffffffffffffffffffffffff168173ffffffffffffffffffffffffffffffffffffffff167f8be0079c531659141344cd1fd0a4f28419497f9722a3daafe3b4186f6b6457e060405160405180910390a35050565b5f8211156115f15760065f9054906101000a900473ffffffffffffffffffffffffffffffffffffffff1673ffffffffffffffffffffffffffffffffffffffff16632a0244e9836040518263ffffffff1660e01b81526004016115c39190611fb4565b5f604051808303815f87803b1580156115da575f5ffd5b505af11580156115ec573d5f5f3e3d5ffd5b505050505b6115fe8585858585611ac4565b5050505050565b5f61163361161283611ba4565b801561162e57505f8480611629576116286127aa565b5b868809115b611bd1565b61163e868686611bdc565b6116489190612454565b9050949350505050565b5f73ffffffffffffffffffffffffffffffffffffffff168473ffffffffffffffffffffffffffffffffffffffff16036116c2575f6040517fe602df050000000000000000000000000000000000000000000000000000000081526004016116b99190612214565b60405180910390fd5b5f73ffffffffffffffffffffffffffffffffffffffff168373ffffffffffffffffffffffffffffffffffffffff1603611732575f6040517f94280d620000000000000000000000000000000000000000000000000000000081526004016117299190612214565b60405180910390fd5b8160015f8673ffffffffffffffffffffffffffffffffffffffff1673ffffffffffffffffffffffffffffffffffffffff1681526020019081526020015f205f8573ffffffffffffffffffffffffffffffffffffffff1673ffffffffffffffffffffffffffffffffffffffff1681526020019081526020015f2081905550801561181b578273ffffffffffffffffffffffffffffffffffffffff168473ffffffffffffffffffffffffffffffffffffffff167f8c5be1e5ebec7d5bd14f71427d1e84f3dd0314c0f7b2291e5b200ac8c7c3b925846040516118129190611fb4565b60405180910390a35b50505050565b5f73ffffffffffffffffffffffffffffffffffffffff168373ffffffffffffffffffffffffffffffffffffffff1603611871578060025f8282546118659190612454565b9250508190555061193f565b5f5f5f8573ffffffffffffffffffffffffffffffffffffffff1673ffffffffffffffffffffffffffffffffffffffff1681526020019081526020015f20549050818110156118fa578381836040517fe450d38c0000000000000000000000000000000000000000000000000000000081526004016118f193929190612580565b60405180910390fd5b8181035f5f8673ffffffffffffffffffffffffffffffffffffffff1673ffffffffffffffffffffffffffffffffffffffff1681526020019081526020015f2081905550505b5f73ffffffffffffffffffffffffffffffffffffffff168273ffffffffffffffffffffffffffffffffffffffff1603611986578060025f82825403925050819055506119d0565b805f5f8473ffffffffffffffffffffffffffffffffffffffff1673ffffffffffffffffffffffffffffffffffffffff1681526020019081526020015f205f82825401925050819055505b8173ffffffffffffffffffffffffffffffffffffffff168373ffffffffffffffffffffffffffffffffffffffff167fddf252ad1be2c89b69c2b068fc378daa952ba7f163c4a11628f55a4df523b3ef83604051611a2d9190611fb4565b60405180910390a3505050565b611a4d611a456109f9565b853085611cbb565b611a578382611d3d565b8273ffffffffffffffffffffffffffffffffffffffff168473ffffffffffffffffffffffffffffffffffffffff167fdcbc1c05240f31ff3ad067ef1ee35ce4997762752e3a095284754544f4c709d78484604051611ab69291906127d7565b60405180910390a350505050565b8273ffffffffffffffffffffffffffffffffffffffff168573ffffffffffffffffffffffffffffffffffffffff1614611b0357611b02838683611147565b5b611b0d8382611dbc565b611b1f611b186109f9565b8584611e3b565b8273ffffffffffffffffffffffffffffffffffffffff168473ffffffffffffffffffffffffffffffffffffffff168673ffffffffffffffffffffffffffffffffffffffff167ffbde797d201c681b91056529119e0b02407c7bb96a4a2c75c01fc9667232c8db8585604051611b959291906127d7565b60405180910390a45050505050565b5f60016002836003811115611bbc57611bbb6127fe565b5b611bc6919061282b565b60ff16149050919050565b5f8115159050919050565b5f5f5f611be98686611eba565b915091505f8203611c0e57838181611c0457611c036127aa565b5b0492505050611cb4565b818411611c2d57611c2c611c275f861460126011611ed7565b611ef0565b5b5f8486880990508181118303925080820391505f855f038616905080860495508083049250600181825f0304019050808402831792505f600287600302189050808702600203810290508087026002038102905080870260020381029050808702600203810290508087026002038102905080870260020381029050808402955050505050505b9392505050565b611d37848573ffffffffffffffffffffffffffffffffffffffff166323b872dd868686604051602401611cf09392919061285b565b604051602081830303815290604052915060e01b6020820180517bffffffffffffffffffffffffffffffffffffffffffffffffffffffff8381831617835250505050611f01565b50505050565b5f73ffffffffffffffffffffffffffffffffffffffff168273ffffffffffffffffffffffffffffffffffffffff1603611dad575f6040517fec442f05000000000000000000000000000000000000000000000000000000008152600401611da49190612214565b60405180910390fd5b611db85f8383611821565b5050565b5f73ffffffffffffffffffffffffffffffffffffffff168273ffffffffffffffffffffffffffffffffffffffff1603611e2c575f6040517f96c6fd1e000000000000000000000000000000000000000000000000000000008152600401611e239190612214565b60405180910390fd5b611e37825f83611821565b5050565b611eb5838473ffffffffffffffffffffffffffffffffffffffff1663a9059cbb8585604051602401611e6e92919061272e565b604051602081830303815290604052915060e01b6020820180517bffffffffffffffffffffffffffffffffffffffffffffffffffffffff8381831617835250505050611f01565b505050565b5f5f5f198385098385029150818110828203039250509250929050565b5f611ee184611bd1565b82841802821890509392505050565b634e487b715f52806020526024601cfd5b5f5f60205f8451602086015f885af180611f20576040513d5f823e3d81fd5b3d92505f519150505f8214611f39576001811415611f54565b5f8473ffffffffffffffffffffffffffffffffffffffff163b145b15611f9657836040517f5274afe7000000000000000000000000000000000000000000000000000000008152600401611f8d9190612214565b60405180910390fd5b50505050565b5f819050919050565b611fae81611f9c565b82525050565b5f602082019050611fc75f830184611fa5565b92915050565b5f81519050919050565b5f82825260208201905092915050565b8281835e5f83830152505050565b5f601f19601f8301169050919050565b5f61200f82611fcd565b6120198185611fd7565b9350612029818560208601611fe7565b61203281611ff5565b840191505092915050565b5f6020820190508181035f8301526120558184612005565b905092915050565b5f5ffd5b61206a81611f9c565b8114612074575f5ffd5b50565b5f8135905061208581612061565b92915050565b5f602082840312156120a05761209f61205d565b5b5f6120ad84828501612077565b91505092915050565b5f73ffffffffffffffffffffffffffffffffffffffff82169050919050565b5f6120df826120b6565b9050919050565b6120ef816120d5565b81146120f9575f5ffd5b50565b5f8135905061210a816120e6565b92915050565b5f5f604083850312156121265761212561205d565b5b5f612133858286016120fc565b925050602061214485828601612077565b9150509250929050565b5f8115159050919050565b6121628161214e565b82525050565b5f60208201905061217b5f830184612159565b92915050565b5f5f5f606084860312156121985761219761205d565b5b5f6121a5868287016120fc565b93505060206121b6868287016120fc565b92505060406121c786828701612077565b9150509250925092565b5f60ff82169050919050565b6121e6816121d1565b82525050565b5f6020820190506121ff5f8301846121dd565b92915050565b61220e816120d5565b82525050565b5f6020820190506122275f830184612205565b92915050565b5f602082840312156122425761224161205d565b5b5f61224f848285016120fc565b91505092915050565b5f5f6040838503121561226e5761226d61205d565b5b5f61227b85828601612077565b925050602061228c858286016120fc565b9150509250929050565b5f819050919050565b5f6122b96122b46122af846120b6565b612296565b6120b6565b9050919050565b5f6122ca8261229f565b9050919050565b5f6122db826122c0565b9050919050565b6122eb816122d1565b82525050565b5f6020820190506123045f8301846122e2565b92915050565b5f5f5f606084860312156123215761232061205d565b5b5f61232e86828701612077565b935050602061233f868287016120fc565b9250506040612350868287016120fc565b9150509250925092565b5f5f604083850312156123705761236f61205d565b5b5f61237d858286016120fc565b925050602061238e858286016120fc565b9150509250929050565b5f815190506123a681612061565b92915050565b5f602082840312156123c1576123c061205d565b5b5f6123ce84828501612398565b91505092915050565b5f5f5f606084860312156123ee576123ed61205d565b5b5f6123fb86828701612398565b935050602061240c86828701612398565b925050604061241d86828701612398565b9150509250925092565b7f4e487b71000000000000000000000000000000000000000000000000000000005f52601160045260245ffd5b5f61245e82611f9c565b915061246983611f9c565b925082820190508082111561248157612480612427565b5b92915050565b7f4e487b71000000000000000000000000000000000000000000000000000000005f52602260045260245ffd5b5f60028204905060018216806124cb57607f821691505b6020821081036124de576124dd612487565b5b50919050565b5f6124ee826121d1565b91506124f9836121d1565b9250828201905060ff81111561251257612511612427565b5b92915050565b7f6d61726b65743d300000000000000000000000000000000000000000000000005f82015250565b5f61254c600883611fd7565b915061255782612518565b602082019050919050565b5f6020820190508181035f83015261257981612540565b9050919050565b5f6060820190506125935f830186612205565b6125a06020830185611fa5565b6125ad6040830184611fa5565b949350505050565b5f8160011c9050919050565b5f5f8291508390505b600185111561260a578086048111156125e6576125e5612427565b5b60018516156125f55780820291505b8081029050612603856125b5565b94506125ca565b94509492505050565b5f8261262257600190506126dd565b8161262f575f90506126dd565b8160018114612645576002811461264f5761267e565b60019150506126dd565b60ff84111561266157612660612427565b5b8360020a91508482111561267857612677612427565b5b506126dd565b5060208310610133831016604e8410600b84101617156126b35782820a9050838111156126ae576126ad612427565b5b6126dd565b6126c084848460016125c1565b925090508184048111156126d7576126d6612427565b5b81810290505b9392505050565b5f6126ee82611f9c565b91506126f9836121d1565b92506127267fffffffffffffffffffffffffffffffffffffffffffffffffffffffffffffffff8484612613565b905092915050565b5f6040820190506127415f830185612205565b61274e6020830184611fa5565b9392505050565b61275e8161214e565b8114612768575f5ffd5b50565b5f8151905061277981612755565b92915050565b5f602082840312156127945761279361205d565b5b5f6127a18482850161276b565b91505092915050565b7f4e487b71000000000000000000000000000000000000000000000000000000005f52601260045260245ffd5b5f6040820190506127ea5f830185611fa5565b6127f76020830184611fa5565b9392505050565b7f4e487b71000000000000000000000000000000000000000000000000000000005f52602160045260245ffd5b5f612835826121d1565b9150612840836121d1565b9250826128505761284f6127aa565b5b828206905092915050565b5f60608201905061286e5f830186612205565b61287b6020830185612205565b6128886040830184611fa5565b94935050505056fea26469706673582212202ec9b68ddfac36eea0c1462e53af3ac48a1fbfe671ccbad936ec6f13368a11e464736f6c634300081e0033","linkReferences":{}},"methodIdentifiers":{"allowance(address,address)":"dd62ed3e","approve(address,uint256)":"095ea7b3","asset()":"38d52e0f","balanceOf(address)":"70a08231","convertToAssets(uint256)":"07a2d13a","convertToShares(uint256)":"c6e6f592","decimals()":"313ce567","deposit(uint256,address)":"6e553f65","harvest()":"4641257d","market()":"80f55605","maxDeposit(address)":"402d267d","maxMint(address)":"c63d75b6","maxRedeem(address)":"d905777e","maxWithdraw(address)":"ce96cb77","mint(uint256,address)":"94bf804d","name()":"06fdde03","owner()":"8da5cb5b","previewDeposit(uint256)":"ef8b30f7","previewMint(uint256)":"b3d7f6b9","previewRedeem(uint256)":"4cdad506","previewWithdraw(uint256)":"0a28a477","redeem(uint256,address,address)":"ba087652","renounceOwnership()":"715018a6","setMarket(address)":"6dcea85f","symbol()":"95d89b41","totalAssets()":"01e1d114","totalSupply()":"18160ddd","transfer(address,uint256)":"a9059cbb","transferFrom(address,address,uint256)":"23b872dd","transferOwnership(address)":"f2fde38b","withdraw(uint256,address,address)":"b460af94"},"id":44}