{"abi":[{"type":"constructor","inputs":[],"stateMutability":"nonpayable"},{"type":"function","name":"allowance","inputs":[{"name":"owner","type":"address","internalType":"address"},{"name":"spender","type":"address","internalType":"address"}],"outputs":[{"name":"","type":"uint256","internalType":"uint256"}],"stateMutability":"view"},{"type":"function","name":"approve","inputs":[{"name":"spender","type":"address","internalType":"address"},{"name":"value","type":"uint256","internalType":"uint256"}],"outputs":[{"name":"","type":"bool","internalType":"bool"}],"stateMutability":"nonpayable"},{"type":"function","name":"balanceOf","inputs":[{"name":"account","type":"address","internalType":"address"}],"outputs":[{"name":"","type":"uint256","internalType":"uint256"}],"stateMutability":"view"},{"type":"function","name":"decimals","inputs":[],"outputs":[{"name":"","type":"uint8","internalType":"uint8"}],"stateMutability":"pure"},{"type":"function","name":"mint","inputs":[{"name":"to","type":"address","internalType":"address"},{"name":"amount","type":"uint256","internalType":"uint256"}],"outputs":[],"stateMutability":"nonpayable"},{"type":"function","name":"mintToSelf","inputs":[{"name":"amount","type":"uint256","internalType":"uint256"}],"outputs":[],"stateMutability":"nonpayable"},{"type":"function","name":"name","inputs":[],"outputs":[{"name":"","type":"string","internalType":"string"}],"stateMutability":"view"},{"type":"function","name":"symbol","inputs":[],"outputs":[{"name":"","type":"string","internalType":"string"}],"stateMutability":"view"},{"type":"function","name":"totalSupply","inputs":[],"outputs":[{"name":"","type":"uint256","internalType":"uint256"}],"stateMutability":"view"},{"type":"function","name":"transfer","inputs":[{"name":"to","type":"address","internalType":"address"},{"name":"value","type":"uint256","internalType":"uint256"}],"outputs":[{"name":"","type":"bool","internalType":"bool"}],"stateMutability":"nonpayable"},{"type":"function","name":"transferFrom","inputs":[{"name":"from","type":"address","internalType":"address"},{"name":"to","type":"address","internalType":"address"},{"name":"value","type":"uint256","internalType":"uint256"}],"outputs":[{"name":"","type":"bool","internalType":"bool"}],"stateMutability":"nonpayable"},{"type":"event","name":"Approval","inputs":[{"name":"owner","type":"address","indexed":true,"internalType":"address"},{"name":"spender","type":"address","indexed":true,"internalType":"address"},{"name":"value","type":"uint256","indexed":false,"internalType":"uint256"}],"anonymous":false},{"type":"event","name":"Transfer","inputs":[{"name":"from","type":"address","indexed":true,"internalType":"address"},{"name":"to","type":"address","indexed":true,"internalType":"address"},{"name":"value","type":"uint256","indexed":false,"internalType":"uint256"}],"anonymous":false},{"type":"error","name":"ERC20InsufficientAllowance","inputs":[{"name":"spender","type":"address","internalType":"address"},{"name":"allowance","type":"uint256","internalType":"uint256"},{"name":"needed","type":"uint256","internalType":"uint256"}]},{"type":"error","name":"ERC20InsufficientBalance","inputs":[{"name":"sender","type":"address","internalType":"address"},{"name":"balance","type":"uint256","internalType":"uint256"},{"name":"needed","type":"uint256","internalType":"uint256"}]},{"type":"error","name":"ERC20InvalidApprover","inputs":[{"name":"approver","type":"address","internalType":"address"}]},{"type":"error","name":"ERC20InvalidReceiver","inputs":[{"name":"receiver","type":"address","internalType":"address"}]},{"type":"error","name":"ERC20InvalidSender","inputs":[{"name":"sender","type":"address","internalType":"address"}]},{"type":"error","name":"ERC20InvalidSpender","inputs":[{"name":"spender","type":"address","internalType":"address"}]}],"bytecode":{"object":"0x608060405234801561000f575f5ffd5b506040518060400160405280600f81526020017f55534420436f696e20284d6f636b2900000000000000000000000000000000008152506040518060400160405280600481526020017f5553444300000000000000000000000000000000000000000000000000000000815250816003908161008b91906102e0565b50806004908161009b91906102e0565b5050506103af565b5f81519050919050565b7f4e487b71000000000000000000000000000000000000000000000000000000005f52604160045260245ffd5b7f4e487b71000000000000000000000000000000000000000000000000000000005f52602260045260245ffd5b5f600282049050600182168061011e57607f821691505b602082108103610131576101306100da565b5b50919050565b5f819050815f5260205f209050919050565b5f6020601f8301049050919050565b5f82821b905092915050565b5f600883026101937fffffffffffffffffffffffffffffffffffffffffffffffffffffffffffffffff82610158565b61019d8683610158565b95508019841693508086168417925050509392505050565b5f819050919050565b5f819050919050565b5f6101e16101dc6101d7846101b5565b6101be565b6101b5565b9050919050565b5f819050919050565b6101fa836101c7565b61020e610206826101e8565b848454610164565b825550505050565b5f5f905090565b610225610216565b6102308184846101f1565b505050565b5b81811015610253576102485f8261021d565b600181019050610236565b5050565b601f8211156102985761026981610137565b61027284610149565b81016020851015610281578190505b61029561028d85610149565b830182610235565b50505b505050565b5f82821c905092915050565b5f6102b85f198460080261029d565b1980831691505092915050565b5f6102d083836102a9565b9150826002028217905092915050565b6102e9826100a3565b67ffffffffffffffff811115610302576103016100ad565b5b61030c8254610107565b610317828285610257565b5f60209050601f831160018114610348575f8415610336578287015190505b61034085826102c5565b8655506103a7565b601f19841661035686610137565b5f5b8281101561037d57848901518255600182019150602085019450602081019050610358565b8683101561039a5784890151610396601f8916826102a9565b8355505b6001600288020188555050505b505050505050565b610ef5806103bc5f395ff3fe608060405234801561000f575f5ffd5b50600436106100a7575f3560e01c806340c10f191161006f57806340c10f191461016557806370a082311461018157806395d89b41146101b1578063a9059cbb146101cf578063bb6d5e3b146101ff578063dd62ed3e1461021b576100a7565b806306fdde03146100ab578063095ea7b3146100c957806318160ddd146100f957806323b872dd14610117578063313ce56714610147575b5f5ffd5b6100b361024b565b6040516100c09190610b43565b60405180910390f35b6100e360048036038101906100de9190610bf4565b6102db565b6040516100f09190610c4c565b60405180910390f35b6101016102fd565b60405161010e9190610c74565b60405180910390f35b610131600480360381019061012c9190610c8d565b610306565b60405161013e9190610c4c565b60405180910390f35b61014f610334565b60405161015c9190610cf8565b60405180910390f35b61017f600480360381019061017a9190610bf4565b61033c565b005b61019b60048036038101906101969190610d11565b61034a565b6040516101a89190610c74565b60405180910390f35b6101b961038f565b6040516101c69190610b43565b60405180910390f35b6101e960048036038101906101e49190610bf4565b61041f565b6040516101f69190610c4c565b60405180910390f35b61021960048036038101906102149190610d3c565b610441565b005b61023560048036038101906102309190610d67565b61044e565b6040516102429190610c74565b60405180910390f35b60606003805461025a90610dd2565b80601f016020809104026020016040519081016040528092919081815260200182805461028690610dd2565b80156102d15780601f106102a8576101008083540402835291602001916102d1565b820191905f5260205f20905b8154815290600101906020018083116102b457829003601f168201915b5050505050905090565b5f5f6102e56104d0565b90506102f28185856104d7565b600191505092915050565b5f600254905090565b5f5f6103106104d0565b905061031d8582856104e9565b61032885858561057c565b60019150509392505050565b5f6006905090565b610346828261066c565b5050565b5f5f5f8373ffffffffffffffffffffffffffffffffffffffff1673ffffffffffffffffffffffffffffffffffffffff1681526020019081526020015f20549050919050565b60606004805461039e90610dd2565b80601f01602080910402602001604051908101604052809291908181526020018280546103ca90610dd2565b80156104155780601f106103ec57610100808354040283529160200191610415565b820191905f5260205f20905b8154815290600101906020018083116103f857829003601f168201915b5050505050905090565b5f5f6104296104d0565b905061043681858561057c565b600191505092915050565b61044b338261066c565b50565b5f60015f8473ffffffffffffffffffffffffffffffffffffffff1673ffffffffffffffffffffffffffffffffffffffff1681526020019081526020015f205f8373ffffffffffffffffffffffffffffffffffffffff1673ffffffffffffffffffffffffffffffffffffffff1681526020019081526020015f2054905092915050565b5f33905090565b6104e483838360016106eb565b505050565b5f6104f4848461044e565b90507fffffffffffffffffffffffffffffffffffffffffffffffffffffffffffffffff8110156105765781811015610567578281836040517ffb8f41b200000000000000000000000000000000000000000000000000000000815260040161055e93929190610e11565b60405180910390fd5b61057584848484035f6106eb565b5b50505050565b5f73ffffffffffffffffffffffffffffffffffffffff168373ffffffffffffffffffffffffffffffffffffffff16036105ec575f6040517f96c6fd1e0000000000000000000000000000000000000000000000000000000081526004016105e39190610e46565b60405180910390fd5b5f73ffffffffffffffffffffffffffffffffffffffff168273ffffffffffffffffffffffffffffffffffffffff160361065c575f6040517fec442f050000000000000000000000000000000000000000000000000000000081526004016106539190610e46565b60405180910390fd5b6106678383836108ba565b505050565b5f73ffffffffffffffffffffffffffffffffffffffff168273ffffffffffffffffffffffffffffffffffffffff16036106dc575f6040517fec442f050000000000000000000000000000000000000000000000000000000081526004016106d39190610e46565b60405180910390fd5b6106e75f83836108ba565b5050565b5f73ffffffffffffffffffffffffffffffffffffffff168473ffffffffffffffffffffffffffffffffffffffff160361075b575f6040517fe602df050000000000000000000000000000000000000000000000000000000081526004016107529190610e46565b60405180910390fd5b5f73ffffffffffffffffffffffffffffffffffffffff168373ffffffffffffffffffffffffffffffffffffffff16036107cb575f6040517f94280d620000000000000000000000000000000000000000000000000000000081526004016107c29190610e46565b60405180910390fd5b8160015f8673ffffffffffffffffffffffffffffffffffffffff1673ffffffffffffffffffffffffffffffffffffffff1681526020019081526020015f205f8573ffffffffffffffffffffffffffffffffffffffff1673ffffffffffffffffffffffffffffffffffffffff1681526020019081526020015f208190555080156108b4578273ffffffffffffffffffffffffffffffffffffffff168473ffffffffffffffffffffffffffffffffffffffff167f8c5be1e5ebec7d5bd14f71427d1e84f3dd0314c0f7b2291e5b200ac8c7c3b925846040516108ab9190610c74565b60405180910390a35b50505050565b5f73ffffffffffffffffffffffffffffffffffffffff168373ffffffffffffffffffffffffffffffffffffffff160361090a578060025f8282546108fe9190610e8c565b925050819055506109d8565b5f5f5f8573ffffffffffffffffffffffffffffffffffffffff1673ffffffffffffffffffffffffffffffffffffffff1681526020019081526020015f2054905081811015610993578381836040517fe450d38c00000000000000000000000000000000000000000000000000000000815260040161098a93929190610e11565b60405180910390fd5b8181035f5f8673ffffffffffffffffffffffffffffffffffffffff1673ffffffffffffffffffffffffffffffffffffffff1681526020019081526020015f2081905550505b5f73ffffffffffffffffffffffffffffffffffffffff168273ffffffffffffffffffffffffffffffffffffffff1603610a1f578060025f8282540392505081905550610a69565b805f5f8473ffffffffffffffffffffffffffffffffffffffff1673ffffffffffffffffffffffffffffffffffffffff1681526020019081526020015f205f82825401925050819055505b8173ffffffffffffffffffffffffffffffffffffffff168373ffffffffffffffffffffffffffffffffffffffff167fddf252ad1be2c89b69c2b068fc378daa952ba7f163c4a11628f55a4df523b3ef83604051610ac69190610c74565b60405180910390a3505050565b5f81519050919050565b5f82825260208201905092915050565b8281835e5f83830152505050565b5f601f19601f8301169050919050565b5f610b1582610ad3565b610b1f8185610add565b9350610b2f818560208601610aed565b610b3881610afb565b840191505092915050565b5f6020820190508181035f830152610b5b8184610b0b565b905092915050565b5f5ffd5b5f73ffffffffffffffffffffffffffffffffffffffff82169050919050565b5f610b9082610b67565b9050919050565b610ba081610b86565b8114610baa575f5ffd5b50565b5f81359050610bbb81610b97565b92915050565b5f819050919050565b610bd381610bc1565b8114610bdd575f5ffd5b50565b5f81359050610bee81610bca565b92915050565b5f5f60408385031215610c0a57610c09610b63565b5b5f610c1785828601610bad565b9250506020610c2885828601610be0565b9150509250929050565b5f8115159050919050565b610c4681610c32565b82525050565b5f602082019050610c5f5f830184610c3d565b92915050565b610c6e81610bc1565b82525050565b5f602082019050610c875f830184610c65565b92915050565b5f5f5f60608486031215610ca457610ca3610b63565b5b5f610cb186828701610bad565b9350506020610cc286828701610bad565b9250506040610cd386828701610be0565b9150509250925092565b5f60ff82169050919050565b610cf281610cdd565b82525050565b5f602082019050610d0b5f830184610ce9565b92915050565b5f60208284031215610d2657610d25610b63565b5b5f610d3384828501610bad565b91505092915050565b5f60208284031215610d5157610d50610b63565b5b5f610d5e84828501610be0565b91505092915050565b5f5f60408385031215610d7d57610d7c610b63565b5b5f610d8a85828601610bad565b9250506020610d9b85828601610bad565b9150509250929050565b7f4e487b71000000000000000000000000000000000000000000000000000000005f52602260045260245ffd5b5f6002820490506001821680610de957607f821691505b602082108103610dfc57610dfb610da5565b5b50919050565b610e0b81610b86565b82525050565b5f606082019050610e245f830186610e02565b610e316020830185610c65565b610e3e6040830184610c65565b949350505050565b5f602082019050610e595f830184610e02565b92915050565b7f4e487b71000000000000000000000000000000000000000000000000000000005f52601160045260245ffd5b5f610e9682610bc1565b9150610ea183610bc1565b9250828201905080821115610eb957610eb8610e5f565b5b9291505056fea26469706673582212201ce913d29da544b25dd9348897a24be9bb03f3016435173bc8286babf41b646c64736f6c634300081e0033","linkReferences":{}},"methodIdentifiers":{"allowance(address,address)":"dd62ed3e","approve(address,uint256)":"095ea7b3","balanceOf(address)":"70a08231","decimals()":"313ce567","mint(address,uint256)":"40c10f19","mintToSelf(uint256)":"bb6d5e3b","name()":"06fdde03","symbol()":"95d89b41","totalSupply()":"18160ddd","transfer(address,uint256)":"a9059cbb","transferFrom(address,address,uint256)":"23b872dd"},"id":45}